{
  "_format": "hh-sol-artifact-1",
  "contractName": "UITToken721",
  "sourceName": "contracts/UITToken721.sol",
  "abi": [
    {
      "inputs": [
        {
          "internalType": "string",
          "name": "_name",
          "type": "string"
        },
        {
          "internalType": "string",
          "name": "_symbol",
          "type": "string"
        },
        {
          "internalType": "address",
          "name": "_parentAddress",
          "type": "address"
        }
      ],
      "stateMutability": "nonpayable",
      "type": "constructor"
    },
    {
      "anonymous": false,
      "inputs": [
        {
          "indexed": true,
          "internalType": "address",
          "name": "owner",
          "type": "address"
        },
        {
          "indexed": true,
          "internalType": "address",
          "name": "approved",
          "type": "address"
        },
        {
          "indexed": true,
          "internalType": "uint256",
          "name": "tokenId",
          "type": "uint256"
        }
      ],
      "name": "Approval",
      "type": "event"
    },
    {
      "anonymous": false,
      "inputs": [
        {
          "indexed": true,
          "internalType": "address",
          "name": "owner",
          "type": "address"
        },
        {
          "indexed": true,
          "internalType": "address",
          "name": "operator",
          "type": "address"
        },
        {
          "indexed": false,
          "internalType": "bool",
          "name": "approved",
          "type": "bool"
        }
      ],
      "name": "ApprovalForAll",
      "type": "event"
    },
    {
      "anonymous": false,
      "inputs": [
        {
          "indexed": true,
          "internalType": "address",
          "name": "previousOwner",
          "type": "address"
        },
        {
          "indexed": true,
          "internalType": "address",
          "name": "newOwner",
          "type": "address"
        }
      ],
      "name": "OwnershipTransferred",
      "type": "event"
    },
    {
      "anonymous": false,
      "inputs": [
        {
          "indexed": true,
          "internalType": "address",
          "name": "from",
          "type": "address"
        },
        {
          "indexed": true,
          "internalType": "address",
          "name": "to",
          "type": "address"
        },
        {
          "indexed": true,
          "internalType": "uint256",
          "name": "tokenId",
          "type": "uint256"
        }
      ],
      "name": "Transfer",
      "type": "event"
    },
    {
      "inputs": [
        {
          "internalType": "address",
          "name": "to",
          "type": "address"
        },
        {
          "internalType": "uint256",
          "name": "tokenId",
          "type": "uint256"
        }
      ],
      "name": "approve",
      "outputs": [],
      "stateMutability": "nonpayable",
      "type": "function"
    },
    {
      "inputs": [
        {
          "internalType": "address",
          "name": "owner",
          "type": "address"
        }
      ],
      "name": "balanceOf",
      "outputs": [
        {
          "internalType": "uint256",
          "name": "",
          "type": "uint256"
        }
      ],
      "stateMutability": "view",
      "type": "function"
    },
    {
      "inputs": [
        {
          "internalType": "uint256",
          "name": "tokenId",
          "type": "uint256"
        }
      ],
      "name": "getApproved",
      "outputs": [
        {
          "internalType": "address",
          "name": "",
          "type": "address"
        }
      ],
      "stateMutability": "view",
      "type": "function"
    },
    {
      "inputs": [],
      "name": "getTokenCount",
      "outputs": [
        {
          "internalType": "uint256",
          "name": "",
          "type": "uint256"
        }
      ],
      "stateMutability": "view",
      "type": "function"
    },
    {
      "inputs": [],
      "name": "getTokenIds",
      "outputs": [
        {
          "internalType": "uint256[]",
          "name": "",
          "type": "uint256[]"
        }
      ],
      "stateMutability": "view",
      "type": "function"
    },
    {
      "inputs": [
        {
          "internalType": "uint256",
          "name": "tokenId",
          "type": "uint256"
        }
      ],
      "name": "getTokenUri",
      "outputs": [
        {
          "internalType": "string",
          "name": "",
          "type": "string"
        }
      ],
      "stateMutability": "view",
      "type": "function"
    },
    {
      "inputs": [
        {
          "internalType": "address",
          "name": "owner",
          "type": "address"
        },
        {
          "internalType": "address",
          "name": "operator",
          "type": "address"
        }
      ],
      "name": "isApprovedForAll",
      "outputs": [
        {
          "internalType": "bool",
          "name": "",
          "type": "bool"
        }
      ],
      "stateMutability": "view",
      "type": "function"
    },
    {
      "inputs": [
        {
          "internalType": "address",
          "name": "_owner",
          "type": "address"
        },
        {
          "internalType": "uint256",
          "name": "_id",
          "type": "uint256"
        },
        {
          "internalType": "string",
          "name": "_tokenUri",
          "type": "string"
        }
      ],
      "name": "mintNFT",
      "outputs": [],
      "stateMutability": "nonpayable",
      "type": "function"
    },
    {
      "inputs": [],
      "name": "name",
      "outputs": [
        {
          "internalType": "string",
          "name": "",
          "type": "string"
        }
      ],
      "stateMutability": "view",
      "type": "function"
    },
    {
      "inputs": [],
      "name": "owner",
      "outputs": [
        {
          "internalType": "address",
          "name": "",
          "type": "address"
        }
      ],
      "stateMutability": "view",
      "type": "function"
    },
    {
      "inputs": [
        {
          "internalType": "uint256",
          "name": "tokenId",
          "type": "uint256"
        }
      ],
      "name": "ownerOf",
      "outputs": [
        {
          "internalType": "address",
          "name": "",
          "type": "address"
        }
      ],
      "stateMutability": "view",
      "type": "function"
    },
    {
      "inputs": [],
      "name": "renounceOwnership",
      "outputs": [],
      "stateMutability": "nonpayable",
      "type": "function"
    },
    {
      "inputs": [
        {
          "internalType": "address",
          "name": "from",
          "type": "address"
        },
        {
          "internalType": "address",
          "name": "to",
          "type": "address"
        },
        {
          "internalType": "uint256",
          "name": "tokenId",
          "type": "uint256"
        }
      ],
      "name": "safeTransferFrom",
      "outputs": [],
      "stateMutability": "nonpayable",
      "type": "function"
    },
    {
      "inputs": [
        {
          "internalType": "address",
          "name": "from",
          "type": "address"
        },
        {
          "internalType": "address",
          "name": "to",
          "type": "address"
        },
        {
          "internalType": "uint256",
          "name": "tokenId",
          "type": "uint256"
        },
        {
          "internalType": "bytes",
          "name": "_data",
          "type": "bytes"
        }
      ],
      "name": "safeTransferFrom",
      "outputs": [],
      "stateMutability": "nonpayable",
      "type": "function"
    },
    {
      "inputs": [
        {
          "internalType": "address",
          "name": "operator",
          "type": "address"
        },
        {
          "internalType": "bool",
          "name": "approved",
          "type": "bool"
        }
      ],
      "name": "setApprovalForAll",
      "outputs": [],
      "stateMutability": "nonpayable",
      "type": "function"
    },
    {
      "inputs": [
        {
          "internalType": "string",
          "name": "_name",
          "type": "string"
        }
      ],
      "name": "setName",
      "outputs": [],
      "stateMutability": "nonpayable",
      "type": "function"
    },
    {
      "inputs": [],
      "name": "setParentApproval",
      "outputs": [],
      "stateMutability": "nonpayable",
      "type": "function"
    },
    {
      "inputs": [
        {
          "internalType": "string",
          "name": "_symbol",
          "type": "string"
        }
      ],
      "name": "setSymbol",
      "outputs": [],
      "stateMutability": "nonpayable",
      "type": "function"
    },
    {
      "inputs": [
        {
          "internalType": "bytes4",
          "name": "interfaceId",
          "type": "bytes4"
        }
      ],
      "name": "supportsInterface",
      "outputs": [
        {
          "internalType": "bool",
          "name": "",
          "type": "bool"
        }
      ],
      "stateMutability": "view",
      "type": "function"
    },
    {
      "inputs": [],
      "name": "symbol",
      "outputs": [
        {
          "internalType": "string",
          "name": "",
          "type": "string"
        }
      ],
      "stateMutability": "view",
      "type": "function"
    },
    {
      "inputs": [
        {
          "internalType": "uint256",
          "name": "tokenId",
          "type": "uint256"
        }
      ],
      "name": "tokenURI",
      "outputs": [
        {
          "internalType": "string",
          "name": "",
          "type": "string"
        }
      ],
      "stateMutability": "view",
      "type": "function"
    },
    {
      "inputs": [
        {
          "internalType": "address",
          "name": "from",
          "type": "address"
        },
        {
          "internalType": "address",
          "name": "to",
          "type": "address"
        },
        {
          "internalType": "uint256",
          "name": "tokenId",
          "type": "uint256"
        }
      ],
      "name": "transferFrom",
      "outputs": [],
      "stateMutability": "nonpayable",
      "type": "function"
    },
    {
      "inputs": [
        {
          "internalType": "address",
          "name": "newOwner",
          "type": "address"
        }
      ],
      "name": "transferOwnership",
      "outputs": [],
      "stateMutability": "nonpayable",
      "type": "function"
    }
  ],
  "bytecode": "0x60806040523480156200001157600080fd5b506040516200397738038062003977833981810160405281019062000037919062000310565b8282816000908051906020019062000051929190620001d7565b5080600190805190602001906200006a929190620001d7565b5050506200008d620000816200010960201b60201c565b6200011160201b60201c565b80600860006101000a81548173ffffffffffffffffffffffffffffffffffffffff021916908373ffffffffffffffffffffffffffffffffffffffff16021790555082600a9080519060200190620000e6929190620001d7565b5081600b9080519060200190620000ff929190620001d7565b5050505062000556565b600033905090565b6000600760009054906101000a900473ffffffffffffffffffffffffffffffffffffffff16905081600760006101000a81548173ffffffffffffffffffffffffffffffffffffffff021916908373ffffffffffffffffffffffffffffffffffffffff1602179055508173ffffffffffffffffffffffffffffffffffffffff168173ffffffffffffffffffffffffffffffffffffffff167f8be0079c531659141344cd1fd0a4f28419497f9722a3daafe3b4186f6b6457e060405160405180910390a35050565b828054620001e59062000461565b90600052602060002090601f01602090048101928262000209576000855562000255565b82601f106200022457805160ff191683800117855562000255565b8280016001018555821562000255579182015b828111156200025457825182559160200191906001019062000237565b5b50905062000264919062000268565b5090565b5b808211156200028357600081600090555060010162000269565b5090565b60006200029e6200029884620003c1565b62000398565b905082815260208101848484011115620002b757600080fd5b620002c48482856200042b565b509392505050565b600081519050620002dd816200053c565b92915050565b600082601f830112620002f557600080fd5b81516200030784826020860162000287565b91505092915050565b6000806000606084860312156200032657600080fd5b600084015167ffffffffffffffff8111156200034157600080fd5b6200034f86828701620002e3565b935050602084015167ffffffffffffffff8111156200036d57600080fd5b6200037b86828701620002e3565b92505060406200038e86828701620002cc565b9150509250925092565b6000620003a4620003b7565b9050620003b2828262000497565b919050565b6000604051905090565b600067ffffffffffffffff821115620003df57620003de620004fc565b5b620003ea826200052b565b9050602081019050919050565b600062000404826200040b565b9050919050565b600073ffffffffffffffffffffffffffffffffffffffff82169050919050565b60005b838110156200044b5780820151818401526020810190506200042e565b838111156200045b576000848401525b50505050565b600060028204905060018216806200047a57607f821691505b60208210811415620004915762000490620004cd565b5b50919050565b620004a2826200052b565b810181811067ffffffffffffffff82111715620004c457620004c3620004fc565b5b80604052505050565b7f4e487b7100000000000000000000000000000000000000000000000000000000600052602260045260246000fd5b7f4e487b7100000000000000000000000000000000000000000000000000000000600052604160045260246000fd5b6000601f19601f8301169050919050565b6200054781620003f7565b81146200055357600080fd5b50565b61341180620005666000396000f3fe608060405234801561001057600080fd5b506004361061014d5760003560e01c806378a89567116100c3578063b88d4fde1161007c578063b88d4fde1461038a578063c47f0027146103a6578063c87b56dd146103c2578063d49e2b59146103f2578063e985e9c5146103fc578063f2fde38b1461042c5761014d565b806378a89567146102c85780638ad91345146102e65780638da5cb5b1461031657806395d89b4114610334578063a22cb46514610352578063b84c82461461036e5761014d565b806323b872dd1161011557806323b872dd1461020857806342842e0e146102245780636352211e1461024057806367f718a91461027057806370a082311461028e578063715018a6146102be5761014d565b806301ffc9a71461015257806306fdde0314610182578063081812fc146101a0578063095ea7b3146101d05780631e576912146101ec575b600080fd5b61016c6004803603810190610167919061229f565b610448565b60405161017991906127d3565b60405180910390f35b61018a61052a565b60405161019791906127ee565b60405180910390f35b6101ba60048036038101906101b59190612332565b6105bc565b6040516101c7919061274a565b60405180910390f35b6101ea60048036038101906101e591906121fc565b610641565b005b61020660048036038101906102019190612238565b610759565b005b610222600480360381019061021d91906120f6565b6107e1565b005b61023e600480360381019061023991906120f6565b610841565b005b61025a60048036038101906102559190612332565b610861565b604051610267919061274a565b60405180910390f35b610278610913565b60405161028591906127b1565b60405180910390f35b6102a860048036038101906102a39190612091565b61096b565b6040516102b59190612a50565b60405180910390f35b6102c6610a23565b005b6102d0610aab565b6040516102dd9190612a50565b60405180910390f35b61030060048036038101906102fb9190612332565b610ab8565b60405161030d91906127ee565b60405180910390f35b61031e610b60565b60405161032b919061274a565b60405180910390f35b61033c610b8a565b60405161034991906127ee565b60405180910390f35b61036c600480360381019061036791906121c0565b610c1c565b005b610388600480360381019061038391906122f1565b610c32565b005b6103a4600480360381019061039f9190612145565b610cc8565b005b6103c060048036038101906103bb91906122f1565b610d2a565b005b6103dc60048036038101906103d79190612332565b610dc0565b6040516103e991906127ee565b60405180910390f35b6103fa610f12565b005b610416600480360381019061041191906120ba565b610f41565b60405161042391906127d3565b60405180910390f35b61044660048036038101906104419190612091565b610fd5565b005b60007f80ac58cd000000000000000000000000000000000000000000000000000000007bffffffffffffffffffffffffffffffffffffffffffffffffffffffff1916827bffffffffffffffffffffffffffffffffffffffffffffffffffffffff1916148061051357507f5b5e139f000000000000000000000000000000000000000000000000000000007bffffffffffffffffffffffffffffffffffffffffffffffffffffffff1916827bffffffffffffffffffffffffffffffffffffffffffffffffffffffff1916145b806105235750610522826110cd565b5b9050919050565b6060600a805461053990612cdf565b80601f016020809104026020016040519081016040528092919081815260200182805461056590612cdf565b80156105b25780601f10610587576101008083540402835291602001916105b2565b820191906000526020600020905b81548152906001019060200180831161059557829003601f168201915b5050505050905090565b60006105c782611137565b610606576040517f08c379a00000000000000000000000000000000000000000000000000000000081526004016105fd906129b0565b60405180910390fd5b6004600083815260200190815260200160002060009054906101000a900473ffffffffffffffffffffffffffffffffffffffff169050919050565b600061064c82610861565b90508073ffffffffffffffffffffffffffffffffffffffff168373ffffffffffffffffffffffffffffffffffffffff1614156106bd576040517f08c379a00000000000000000000000000000000000000000000000000000000081526004016106b490612a10565b60405180910390fd5b8073ffffffffffffffffffffffffffffffffffffffff166106dc6111a3565b73ffffffffffffffffffffffffffffffffffffffff16148061070b575061070a816107056111a3565b610f41565b5b61074a576040517f08c379a0000000000000000000000000000000000000000000000000000000008152600401610741906128f0565b60405180910390fd5b61075483836111ab565b505050565b6107638383611264565b61076d828261143e565b600982908060018154018082558091505060019003906000526020600020016000909190919091505581600c60008481526020019081526020016000206000018190555080600c600084815260200190815260200160002060010190805190602001906107db929190611eb5565b50505050565b6107f26107ec6111a3565b826114b2565b610831576040517f08c379a000000000000000000000000000000000000000000000000000000000815260040161082890612a30565b60405180910390fd5b61083c838383611590565b505050565b61085c83838360405180602001604052806000815250610cc8565b505050565b6000806002600084815260200190815260200160002060009054906101000a900473ffffffffffffffffffffffffffffffffffffffff169050600073ffffffffffffffffffffffffffffffffffffffff168173ffffffffffffffffffffffffffffffffffffffff16141561090a576040517f08c379a000000000000000000000000000000000000000000000000000000000815260040161090190612930565b60405180910390fd5b80915050919050565b6060600980548060200260200160405190810160405280929190818152602001828054801561096157602002820191906000526020600020905b81548152602001906001019080831161094d575b5050505050905090565b60008073ffffffffffffffffffffffffffffffffffffffff168273ffffffffffffffffffffffffffffffffffffffff1614156109dc576040517f08c379a00000000000000000000000000000000000000000000000000000000081526004016109d390612910565b60405180910390fd5b600360008373ffffffffffffffffffffffffffffffffffffffff1673ffffffffffffffffffffffffffffffffffffffff168152602001908152602001600020549050919050565b610a2b6111a3565b73ffffffffffffffffffffffffffffffffffffffff16610a49610b60565b73ffffffffffffffffffffffffffffffffffffffff1614610a9f576040517f08c379a0000000000000000000000000000000000000000000000000000000008152600401610a96906129d0565b60405180910390fd5b610aa960006117f7565b565b6000600980549050905090565b6060600c60008381526020019081526020016000206001018054610adb90612cdf565b80601f0160208091040260200160405190810160405280929190818152602001828054610b0790612cdf565b8015610b545780601f10610b2957610100808354040283529160200191610b54565b820191906000526020600020905b815481529060010190602001808311610b3757829003601f168201915b50505050509050919050565b6000600760009054906101000a900473ffffffffffffffffffffffffffffffffffffffff16905090565b6060600b8054610b9990612cdf565b80601f0160208091040260200160405190810160405280929190818152602001828054610bc590612cdf565b8015610c125780601f10610be757610100808354040283529160200191610c12565b820191906000526020600020905b815481529060010190602001808311610bf557829003601f168201915b5050505050905090565b610c2e610c276111a3565b83836118bd565b5050565b610c3a6111a3565b73ffffffffffffffffffffffffffffffffffffffff16610c58610b60565b73ffffffffffffffffffffffffffffffffffffffff1614610cae576040517f08c379a0000000000000000000000000000000000000000000000000000000008152600401610ca5906129d0565b60405180910390fd5b80600b9080519060200190610cc4929190611eb5565b5050565b610cd9610cd36111a3565b836114b2565b610d18576040517f08c379a0000000000000000000000000000000000000000000000000000000008152600401610d0f90612a30565b60405180910390fd5b610d2484848484611a2a565b50505050565b610d326111a3565b73ffffffffffffffffffffffffffffffffffffffff16610d50610b60565b73ffffffffffffffffffffffffffffffffffffffff1614610da6576040517f08c379a0000000000000000000000000000000000000000000000000000000008152600401610d9d906129d0565b60405180910390fd5b80600a9080519060200190610dbc929190611eb5565b5050565b6060610dcb82611137565b610e0a576040517f08c379a0000000000000000000000000000000000000000000000000000000008152600401610e0190612990565b60405180910390fd5b6000600660008481526020019081526020016000208054610e2a90612cdf565b80601f0160208091040260200160405190810160405280929190818152602001828054610e5690612cdf565b8015610ea35780601f10610e7857610100808354040283529160200191610ea3565b820191906000526020600020905b815481529060010190602001808311610e8657829003601f168201915b505050505090506000610eb4611a86565b9050600081511415610eca578192505050610f0d565b600082511115610eff578082604051602001610ee7929190612726565b60405160208183030381529060405292505050610f0d565b610f0884611a9d565b925050505b919050565b610f3f600860009054906101000a900473ffffffffffffffffffffffffffffffffffffffff166001610c1c565b565b6000600560008473ffffffffffffffffffffffffffffffffffffffff1673ffffffffffffffffffffffffffffffffffffffff16815260200190815260200160002060008373ffffffffffffffffffffffffffffffffffffffff1673ffffffffffffffffffffffffffffffffffffffff16815260200190815260200160002060009054906101000a900460ff16905092915050565b610fdd6111a3565b73ffffffffffffffffffffffffffffffffffffffff16610ffb610b60565b73ffffffffffffffffffffffffffffffffffffffff1614611051576040517f08c379a0000000000000000000000000000000000000000000000000000000008152600401611048906129d0565b60405180910390fd5b600073ffffffffffffffffffffffffffffffffffffffff168173ffffffffffffffffffffffffffffffffffffffff1614156110c1576040517f08c379a00000000000000000000000000000000000000000000000000000000081526004016110b890612830565b60405180910390fd5b6110ca816117f7565b50565b60007f01ffc9a7000000000000000000000000000000000000000000000000000000007bffffffffffffffffffffffffffffffffffffffffffffffffffffffff1916827bffffffffffffffffffffffffffffffffffffffffffffffffffffffff1916149050919050565b60008073ffffffffffffffffffffffffffffffffffffffff166002600084815260200190815260200160002060009054906101000a900473ffffffffffffffffffffffffffffffffffffffff1673ffffffffffffffffffffffffffffffffffffffff1614159050919050565b600033905090565b816004600083815260200190815260200160002060006101000a81548173ffffffffffffffffffffffffffffffffffffffff021916908373ffffffffffffffffffffffffffffffffffffffff160217905550808273ffffffffffffffffffffffffffffffffffffffff1661121e83610861565b73ffffffffffffffffffffffffffffffffffffffff167f8c5be1e5ebec7d5bd14f71427d1e84f3dd0314c0f7b2291e5b200ac8c7c3b92560405160405180910390a45050565b600073ffffffffffffffffffffffffffffffffffffffff168273ffffffffffffffffffffffffffffffffffffffff1614156112d4576040517f08c379a00000000000000000000000000000000000000000000000000000000081526004016112cb90612970565b60405180910390fd5b6112dd81611137565b1561131d576040517f08c379a000000000000000000000000000000000000000000000000000000000815260040161131490612870565b60405180910390fd5b61132960008383611b44565b6001600360008473ffffffffffffffffffffffffffffffffffffffff1673ffffffffffffffffffffffffffffffffffffffff16815260200190815260200160002060008282546113799190612b6e565b92505081905550816002600083815260200190815260200160002060006101000a81548173ffffffffffffffffffffffffffffffffffffffff021916908373ffffffffffffffffffffffffffffffffffffffff160217905550808273ffffffffffffffffffffffffffffffffffffffff16600073ffffffffffffffffffffffffffffffffffffffff167fddf252ad1be2c89b69c2b068fc378daa952ba7f163c4a11628f55a4df523b3ef60405160405180910390a461143a60008383611b49565b5050565b61144782611137565b611486576040517f08c379a000000000000000000000000000000000000000000000000000000000815260040161147d90612950565b60405180910390fd5b806006600084815260200190815260200160002090805190602001906114ad929190611eb5565b505050565b60006114bd82611137565b6114fc576040517f08c379a00000000000000000000000000000000000000000000000000000000081526004016114f3906128d0565b60405180910390fd5b600061150783610861565b90508073ffffffffffffffffffffffffffffffffffffffff168473ffffffffffffffffffffffffffffffffffffffff16148061154957506115488185610f41565b5b8061158757508373ffffffffffffffffffffffffffffffffffffffff1661156f846105bc565b73ffffffffffffffffffffffffffffffffffffffff16145b91505092915050565b8273ffffffffffffffffffffffffffffffffffffffff166115b082610861565b73ffffffffffffffffffffffffffffffffffffffff1614611606576040517f08c379a00000000000000000000000000000000000000000000000000000000081526004016115fd90612850565b60405180910390fd5b600073ffffffffffffffffffffffffffffffffffffffff168273ffffffffffffffffffffffffffffffffffffffff161415611676576040517f08c379a000000000000000000000000000000000000000000000000000000000815260040161166d90612890565b60405180910390fd5b611681838383611b44565b61168c6000826111ab565b6001600360008573ffffffffffffffffffffffffffffffffffffffff1673ffffffffffffffffffffffffffffffffffffffff16815260200190815260200160002060008282546116dc9190612bf5565b925050819055506001600360008473ffffffffffffffffffffffffffffffffffffffff1673ffffffffffffffffffffffffffffffffffffffff16815260200190815260200160002060008282546117339190612b6e565b92505081905550816002600083815260200190815260200160002060006101000a81548173ffffffffffffffffffffffffffffffffffffffff021916908373ffffffffffffffffffffffffffffffffffffffff160217905550808273ffffffffffffffffffffffffffffffffffffffff168473ffffffffffffffffffffffffffffffffffffffff167fddf252ad1be2c89b69c2b068fc378daa952ba7f163c4a11628f55a4df523b3ef60405160405180910390a46117f2838383611b49565b505050565b6000600760009054906101000a900473ffffffffffffffffffffffffffffffffffffffff16905081600760006101000a81548173ffffffffffffffffffffffffffffffffffffffff021916908373ffffffffffffffffffffffffffffffffffffffff1602179055508173ffffffffffffffffffffffffffffffffffffffff168173ffffffffffffffffffffffffffffffffffffffff167f8be0079c531659141344cd1fd0a4f28419497f9722a3daafe3b4186f6b6457e060405160405180910390a35050565b8173ffffffffffffffffffffffffffffffffffffffff168373ffffffffffffffffffffffffffffffffffffffff16141561192c576040517f08c379a0000000000000000000000000000000000000000000000000000000008152600401611923906128b0565b60405180910390fd5b80600560008573ffffffffffffffffffffffffffffffffffffffff1673ffffffffffffffffffffffffffffffffffffffff16815260200190815260200160002060008473ffffffffffffffffffffffffffffffffffffffff1673ffffffffffffffffffffffffffffffffffffffff16815260200190815260200160002060006101000a81548160ff0219169083151502179055508173ffffffffffffffffffffffffffffffffffffffff168373ffffffffffffffffffffffffffffffffffffffff167f17307eab39ab6107e8899845ad3d59bd9653f200f220920489ca2b5937696c3183604051611a1d91906127d3565b60405180910390a3505050565b611a35848484611590565b611a4184848484611b4e565b611a80576040517f08c379a0000000000000000000000000000000000000000000000000000000008152600401611a7790612810565b60405180910390fd5b50505050565b606060405180602001604052806000815250905090565b6060611aa882611137565b611ae7576040517f08c379a0000000000000000000000000000000000000000000000000000000008152600401611ade906129f0565b60405180910390fd5b6000611af1611a86565b90506000815111611b115760405180602001604052806000815250611b3c565b80611b1b84611ce5565b604051602001611b2c929190612726565b6040516020818303038152906040525b915050919050565b505050565b505050565b6000611b6f8473ffffffffffffffffffffffffffffffffffffffff16611e92565b15611cd8578373ffffffffffffffffffffffffffffffffffffffff1663150b7a02611b986111a3565b8786866040518563ffffffff1660e01b8152600401611bba9493929190612765565b602060405180830381600087803b158015611bd457600080fd5b505af1925050508015611c0557506040513d601f19601f82011682018060405250810190611c0291906122c8565b60015b611c88573d8060008114611c35576040519150601f19603f3d011682016040523d82523d6000602084013e611c3a565b606091505b50600081511415611c80576040517f08c379a0000000000000000000000000000000000000000000000000000000008152600401611c7790612810565b60405180910390fd5b805181602001fd5b63150b7a0260e01b7bffffffffffffffffffffffffffffffffffffffffffffffffffffffff1916817bffffffffffffffffffffffffffffffffffffffffffffffffffffffff191614915050611cdd565b600190505b949350505050565b60606000821415611d2d576040518060400160405280600181526020017f30000000000000000000000000000000000000000000000000000000000000008152509050611e8d565b600082905060005b60008214611d5f578080611d4890612d42565b915050600a82611d589190612bc4565b9150611d35565b60008167ffffffffffffffff811115611da1577f4e487b7100000000000000000000000000000000000000000000000000000000600052604160045260246000fd5b6040519080825280601f01601f191660200182016040528015611dd35781602001600182028036833780820191505090505b5090505b60008514611e8657600182611dec9190612bf5565b9150600a85611dfb9190612d8b565b6030611e079190612b6e565b60f81b818381518110611e43577f4e487b7100000000000000000000000000000000000000000000000000000000600052603260045260246000fd5b60200101907effffffffffffffffffffffffffffffffffffffffffffffffffffffffffffff1916908160001a905350600a85611e7f9190612bc4565b9450611dd7565b8093505050505b919050565b6000808273ffffffffffffffffffffffffffffffffffffffff163b119050919050565b828054611ec190612cdf565b90600052602060002090601f016020900481019282611ee35760008555611f2a565b82601f10611efc57805160ff1916838001178555611f2a565b82800160010185558215611f2a579182015b82811115611f29578251825591602001919060010190611f0e565b5b509050611f379190611f3b565b5090565b5b80821115611f54576000816000905550600101611f3c565b5090565b6000611f6b611f6684612a90565b612a6b565b905082815260208101848484011115611f8357600080fd5b611f8e848285612c9d565b509392505050565b6000611fa9611fa484612ac1565b612a6b565b905082815260208101848484011115611fc157600080fd5b611fcc848285612c9d565b509392505050565b600081359050611fe38161337f565b92915050565b600081359050611ff881613396565b92915050565b60008135905061200d816133ad565b92915050565b600081519050612022816133ad565b92915050565b600082601f83011261203957600080fd5b8135612049848260208601611f58565b91505092915050565b600082601f83011261206357600080fd5b8135612073848260208601611f96565b91505092915050565b60008135905061208b816133c4565b92915050565b6000602082840312156120a357600080fd5b60006120b184828501611fd4565b91505092915050565b600080604083850312156120cd57600080fd5b60006120db85828601611fd4565b92505060206120ec85828601611fd4565b9150509250929050565b60008060006060848603121561210b57600080fd5b600061211986828701611fd4565b935050602061212a86828701611fd4565b925050604061213b8682870161207c565b9150509250925092565b6000806000806080858703121561215b57600080fd5b600061216987828801611fd4565b945050602061217a87828801611fd4565b935050604061218b8782880161207c565b925050606085013567ffffffffffffffff8111156121a857600080fd5b6121b487828801612028565b91505092959194509250565b600080604083850312156121d357600080fd5b60006121e185828601611fd4565b92505060206121f285828601611fe9565b9150509250929050565b6000806040838503121561220f57600080fd5b600061221d85828601611fd4565b925050602061222e8582860161207c565b9150509250929050565b60008060006060848603121561224d57600080fd5b600061225b86828701611fd4565b935050602061226c8682870161207c565b925050604084013567ffffffffffffffff81111561228957600080fd5b61229586828701612052565b9150509250925092565b6000602082840312156122b157600080fd5b60006122bf84828501611ffe565b91505092915050565b6000602082840312156122da57600080fd5b60006122e884828501612013565b91505092915050565b60006020828403121561230357600080fd5b600082013567ffffffffffffffff81111561231d57600080fd5b61232984828501612052565b91505092915050565b60006020828403121561234457600080fd5b60006123528482850161207c565b91505092915050565b60006123678383612708565b60208301905092915050565b61237c81612c29565b82525050565b600061238d82612b02565b6123978185612b30565b93506123a283612af2565b8060005b838110156123d35781516123ba888261235b565b97506123c583612b23565b9250506001810190506123a6565b5085935050505092915050565b6123e981612c3b565b82525050565b60006123fa82612b0d565b6124048185612b41565b9350612414818560208601612cac565b61241d81612e78565b840191505092915050565b600061243382612b18565b61243d8185612b52565b935061244d818560208601612cac565b61245681612e78565b840191505092915050565b600061246c82612b18565b6124768185612b63565b9350612486818560208601612cac565b80840191505092915050565b600061249f603283612b52565b91506124aa82612e89565b604082019050919050565b60006124c2602683612b52565b91506124cd82612ed8565b604082019050919050565b60006124e5602583612b52565b91506124f082612f27565b604082019050919050565b6000612508601c83612b52565b915061251382612f76565b602082019050919050565b600061252b602483612b52565b915061253682612f9f565b604082019050919050565b600061254e601983612b52565b915061255982612fee565b602082019050919050565b6000612571602c83612b52565b915061257c82613017565b604082019050919050565b6000612594603883612b52565b915061259f82613066565b604082019050919050565b60006125b7602a83612b52565b91506125c2826130b5565b604082019050919050565b60006125da602983612b52565b91506125e582613104565b604082019050919050565b60006125fd602e83612b52565b915061260882613153565b604082019050919050565b6000612620602083612b52565b915061262b826131a2565b602082019050919050565b6000612643603183612b52565b915061264e826131cb565b604082019050919050565b6000612666602c83612b52565b91506126718261321a565b604082019050919050565b6000612689602083612b52565b915061269482613269565b602082019050919050565b60006126ac602f83612b52565b91506126b782613292565b604082019050919050565b60006126cf602183612b52565b91506126da826132e1565b604082019050919050565b60006126f2603183612b52565b91506126fd82613330565b604082019050919050565b61271181612c93565b82525050565b61272081612c93565b82525050565b60006127328285612461565b915061273e8284612461565b91508190509392505050565b600060208201905061275f6000830184612373565b92915050565b600060808201905061277a6000830187612373565b6127876020830186612373565b6127946040830185612717565b81810360608301526127a681846123ef565b905095945050505050565b600060208201905081810360008301526127cb8184612382565b905092915050565b60006020820190506127e860008301846123e0565b92915050565b600060208201905081810360008301526128088184612428565b905092915050565b6000602082019050818103600083015261282981612492565b9050919050565b60006020820190508181036000830152612849816124b5565b9050919050565b60006020820190508181036000830152612869816124d8565b9050919050565b60006020820190508181036000830152612889816124fb565b9050919050565b600060208201905081810360008301526128a98161251e565b9050919050565b600060208201905081810360008301526128c981612541565b9050919050565b600060208201905081810360008301526128e981612564565b9050919050565b6000602082019050818103600083015261290981612587565b9050919050565b60006020820190508181036000830152612929816125aa565b9050919050565b60006020820190508181036000830152612949816125cd565b9050919050565b60006020820190508181036000830152612969816125f0565b9050919050565b6000602082019050818103600083015261298981612613565b9050919050565b600060208201905081810360008301526129a981612636565b9050919050565b600060208201905081810360008301526129c981612659565b9050919050565b600060208201905081810360008301526129e98161267c565b9050919050565b60006020820190508181036000830152612a098161269f565b9050919050565b60006020820190508181036000830152612a29816126c2565b9050919050565b60006020820190508181036000830152612a49816126e5565b9050919050565b6000602082019050612a656000830184612717565b92915050565b6000612a75612a86565b9050612a818282612d11565b919050565b6000604051905090565b600067ffffffffffffffff821115612aab57612aaa612e49565b5b612ab482612e78565b9050602081019050919050565b600067ffffffffffffffff821115612adc57612adb612e49565b5b612ae582612e78565b9050602081019050919050565b6000819050602082019050919050565b600081519050919050565b600081519050919050565b600081519050919050565b6000602082019050919050565b600082825260208201905092915050565b600082825260208201905092915050565b600082825260208201905092915050565b600081905092915050565b6000612b7982612c93565b9150612b8483612c93565b9250827fffffffffffffffffffffffffffffffffffffffffffffffffffffffffffffffff03821115612bb957612bb8612dbc565b5b828201905092915050565b6000612bcf82612c93565b9150612bda83612c93565b925082612bea57612be9612deb565b5b828204905092915050565b6000612c0082612c93565b9150612c0b83612c93565b925082821015612c1e57612c1d612dbc565b5b828203905092915050565b6000612c3482612c73565b9050919050565b60008115159050919050565b60007fffffffff0000000000000000000000000000000000000000000000000000000082169050919050565b600073ffffffffffffffffffffffffffffffffffffffff82169050919050565b6000819050919050565b82818337600083830152505050565b60005b83811015612cca578082015181840152602081019050612caf565b83811115612cd9576000848401525b50505050565b60006002820490506001821680612cf757607f821691505b60208210811415612d0b57612d0a612e1a565b5b50919050565b612d1a82612e78565b810181811067ffffffffffffffff82111715612d3957612d38612e49565b5b80604052505050565b6000612d4d82612c93565b91507fffffffffffffffffffffffffffffffffffffffffffffffffffffffffffffffff821415612d8057612d7f612dbc565b5b600182019050919050565b6000612d9682612c93565b9150612da183612c93565b925082612db157612db0612deb565b5b828206905092915050565b7f4e487b7100000000000000000000000000000000000000000000000000000000600052601160045260246000fd5b7f4e487b7100000000000000000000000000000000000000000000000000000000600052601260045260246000fd5b7f4e487b7100000000000000000000000000000000000000000000000000000000600052602260045260246000fd5b7f4e487b7100000000000000000000000000000000000000000000000000000000600052604160045260246000fd5b6000601f19601f8301169050919050565b7f4552433732313a207472616e7366657220746f206e6f6e20455243373231526560008201527f63656976657220696d706c656d656e7465720000000000000000000000000000602082015250565b7f4f776e61626c653a206e6577206f776e657220697320746865207a65726f206160008201527f6464726573730000000000000000000000000000000000000000000000000000602082015250565b7f4552433732313a207472616e736665722066726f6d20696e636f72726563742060008201527f6f776e6572000000000000000000000000000000000000000000000000000000602082015250565b7f4552433732313a20746f6b656e20616c7265616479206d696e74656400000000600082015250565b7f4552433732313a207472616e7366657220746f20746865207a65726f2061646460008201527f7265737300000000000000000000000000000000000000000000000000000000602082015250565b7f4552433732313a20617070726f766520746f2063616c6c657200000000000000600082015250565b7f4552433732313a206f70657261746f7220717565727920666f72206e6f6e657860008201527f697374656e7420746f6b656e0000000000000000000000000000000000000000602082015250565b7f4552433732313a20617070726f76652063616c6c6572206973206e6f74206f7760008201527f6e6572206e6f7220617070726f76656420666f7220616c6c0000000000000000602082015250565b7f4552433732313a2062616c616e636520717565727920666f7220746865207a6560008201527f726f206164647265737300000000000000000000000000000000000000000000602082015250565b7f4552433732313a206f776e657220717565727920666f72206e6f6e657869737460008201527f656e7420746f6b656e0000000000000000000000000000000000000000000000602082015250565b7f45524337323155524953746f726167653a2055524920736574206f66206e6f6e60008201527f6578697374656e7420746f6b656e000000000000000000000000000000000000602082015250565b7f4552433732313a206d696e7420746f20746865207a65726f2061646472657373600082015250565b7f45524337323155524953746f726167653a2055524920717565727920666f722060008201527f6e6f6e6578697374656e7420746f6b656e000000000000000000000000000000602082015250565b7f4552433732313a20617070726f76656420717565727920666f72206e6f6e657860008201527f697374656e7420746f6b656e0000000000000000000000000000000000000000602082015250565b7f4f776e61626c653a2063616c6c6572206973206e6f7420746865206f776e6572600082015250565b7f4552433732314d657461646174613a2055524920717565727920666f72206e6f60008201527f6e6578697374656e7420746f6b656e0000000000000000000000000000000000602082015250565b7f4552433732313a20617070726f76616c20746f2063757272656e74206f776e6560008201527f7200000000000000000000000000000000000000000000000000000000000000602082015250565b7f4552433732313a207472616e736665722063616c6c6572206973206e6f74206f60008201527f776e6572206e6f7220617070726f766564000000000000000000000000000000602082015250565b61338881612c29565b811461339357600080fd5b50565b61339f81612c3b565b81146133aa57600080fd5b50565b6133b681612c47565b81146133c157600080fd5b50565b6133cd81612c93565b81146133d857600080fd5b5056fea264697066735822122067c7cf9f6aaf31d2084bdd9ac6c326c17c5e5de2cfe899d212aa1942fc28ce9d64736f6c63430008040033",
  "linkReferences": {},
  "deployedLinkReferences": {}
}