{
  "_format": "hh-sol-artifact-1",
  "contractName": "UITToken1155",
  "sourceName": "contracts/UITToken1155.sol",
  "abi": [
    {
      "inputs": [
        {
          "internalType": "string",
          "name": "_name",
          "type": "string"
        },
        {
          "internalType": "string",
          "name": "_symbol",
          "type": "string"
        },
        {
          "internalType": "address",
          "name": "_parentAddress",
          "type": "address"
        }
      ],
      "stateMutability": "nonpayable",
      "type": "constructor"
    },
    {
      "anonymous": false,
      "inputs": [
        {
          "indexed": true,
          "internalType": "address",
          "name": "account",
          "type": "address"
        },
        {
          "indexed": true,
          "internalType": "address",
          "name": "operator",
          "type": "address"
        },
        {
          "indexed": false,
          "internalType": "bool",
          "name": "approved",
          "type": "bool"
        }
      ],
      "name": "ApprovalForAll",
      "type": "event"
    },
    {
      "anonymous": false,
      "inputs": [
        {
          "indexed": true,
          "internalType": "address",
          "name": "previousOwner",
          "type": "address"
        },
        {
          "indexed": true,
          "internalType": "address",
          "name": "newOwner",
          "type": "address"
        }
      ],
      "name": "OwnershipTransferred",
      "type": "event"
    },
    {
      "anonymous": false,
      "inputs": [
        {
          "indexed": true,
          "internalType": "address",
          "name": "operator",
          "type": "address"
        },
        {
          "indexed": true,
          "internalType": "address",
          "name": "from",
          "type": "address"
        },
        {
          "indexed": true,
          "internalType": "address",
          "name": "to",
          "type": "address"
        },
        {
          "indexed": false,
          "internalType": "uint256[]",
          "name": "ids",
          "type": "uint256[]"
        },
        {
          "indexed": false,
          "internalType": "uint256[]",
          "name": "values",
          "type": "uint256[]"
        }
      ],
      "name": "TransferBatch",
      "type": "event"
    },
    {
      "anonymous": false,
      "inputs": [
        {
          "indexed": true,
          "internalType": "address",
          "name": "operator",
          "type": "address"
        },
        {
          "indexed": true,
          "internalType": "address",
          "name": "from",
          "type": "address"
        },
        {
          "indexed": true,
          "internalType": "address",
          "name": "to",
          "type": "address"
        },
        {
          "indexed": false,
          "internalType": "uint256",
          "name": "id",
          "type": "uint256"
        },
        {
          "indexed": false,
          "internalType": "uint256",
          "name": "value",
          "type": "uint256"
        }
      ],
      "name": "TransferSingle",
      "type": "event"
    },
    {
      "anonymous": false,
      "inputs": [
        {
          "indexed": false,
          "internalType": "string",
          "name": "value",
          "type": "string"
        },
        {
          "indexed": true,
          "internalType": "uint256",
          "name": "id",
          "type": "uint256"
        }
      ],
      "name": "URI",
      "type": "event"
    },
    {
      "inputs": [
        {
          "internalType": "address",
          "name": "account",
          "type": "address"
        },
        {
          "internalType": "uint256",
          "name": "id",
          "type": "uint256"
        }
      ],
      "name": "balanceOf",
      "outputs": [
        {
          "internalType": "uint256",
          "name": "",
          "type": "uint256"
        }
      ],
      "stateMutability": "view",
      "type": "function"
    },
    {
      "inputs": [
        {
          "internalType": "address[]",
          "name": "accounts",
          "type": "address[]"
        },
        {
          "internalType": "uint256[]",
          "name": "ids",
          "type": "uint256[]"
        }
      ],
      "name": "balanceOfBatch",
      "outputs": [
        {
          "internalType": "uint256[]",
          "name": "",
          "type": "uint256[]"
        }
      ],
      "stateMutability": "view",
      "type": "function"
    },
    {
      "inputs": [],
      "name": "collectionSymbol",
      "outputs": [
        {
          "internalType": "string",
          "name": "",
          "type": "string"
        }
      ],
      "stateMutability": "view",
      "type": "function"
    },
    {
      "inputs": [],
      "name": "getTokenCount",
      "outputs": [
        {
          "internalType": "uint256",
          "name": "",
          "type": "uint256"
        }
      ],
      "stateMutability": "view",
      "type": "function"
    },
    {
      "inputs": [],
      "name": "getTokenIds",
      "outputs": [
        {
          "internalType": "uint256[]",
          "name": "",
          "type": "uint256[]"
        }
      ],
      "stateMutability": "view",
      "type": "function"
    },
    {
      "inputs": [
        {
          "internalType": "uint256",
          "name": "_tokenId",
          "type": "uint256"
        }
      ],
      "name": "getTokenURI",
      "outputs": [
        {
          "internalType": "string",
          "name": "",
          "type": "string"
        }
      ],
      "stateMutability": "view",
      "type": "function"
    },
    {
      "inputs": [
        {
          "internalType": "uint256",
          "name": "_id",
          "type": "uint256"
        }
      ],
      "name": "getTotalSupplyOfToken",
      "outputs": [
        {
          "internalType": "uint256",
          "name": "",
          "type": "uint256"
        }
      ],
      "stateMutability": "view",
      "type": "function"
    },
    {
      "inputs": [
        {
          "internalType": "address",
          "name": "account",
          "type": "address"
        },
        {
          "internalType": "address",
          "name": "operator",
          "type": "address"
        }
      ],
      "name": "isApprovedForAll",
      "outputs": [
        {
          "internalType": "bool",
          "name": "",
          "type": "bool"
        }
      ],
      "stateMutability": "view",
      "type": "function"
    },
    {
      "inputs": [
        {
          "internalType": "address",
          "name": "_owner",
          "type": "address"
        },
        {
          "internalType": "uint256",
          "name": "_id",
          "type": "uint256"
        },
        {
          "internalType": "uint256",
          "name": "amount",
          "type": "uint256"
        },
        {
          "internalType": "string",
          "name": "_tokenUri",
          "type": "string"
        }
      ],
      "name": "mintNFT",
      "outputs": [],
      "stateMutability": "nonpayable",
      "type": "function"
    },
    {
      "inputs": [],
      "name": "name",
      "outputs": [
        {
          "internalType": "string",
          "name": "",
          "type": "string"
        }
      ],
      "stateMutability": "view",
      "type": "function"
    },
    {
      "inputs": [],
      "name": "owner",
      "outputs": [
        {
          "internalType": "address",
          "name": "",
          "type": "address"
        }
      ],
      "stateMutability": "view",
      "type": "function"
    },
    {
      "inputs": [],
      "name": "renounceOwnership",
      "outputs": [],
      "stateMutability": "nonpayable",
      "type": "function"
    },
    {
      "inputs": [
        {
          "internalType": "address",
          "name": "from",
          "type": "address"
        },
        {
          "internalType": "address",
          "name": "to",
          "type": "address"
        },
        {
          "internalType": "uint256[]",
          "name": "ids",
          "type": "uint256[]"
        },
        {
          "internalType": "uint256[]",
          "name": "amounts",
          "type": "uint256[]"
        },
        {
          "internalType": "bytes",
          "name": "data",
          "type": "bytes"
        }
      ],
      "name": "safeBatchTransferFrom",
      "outputs": [],
      "stateMutability": "nonpayable",
      "type": "function"
    },
    {
      "inputs": [
        {
          "internalType": "address",
          "name": "from",
          "type": "address"
        },
        {
          "internalType": "address",
          "name": "to",
          "type": "address"
        },
        {
          "internalType": "uint256",
          "name": "id",
          "type": "uint256"
        },
        {
          "internalType": "uint256",
          "name": "amount",
          "type": "uint256"
        },
        {
          "internalType": "bytes",
          "name": "data",
          "type": "bytes"
        }
      ],
      "name": "safeTransferFrom",
      "outputs": [],
      "stateMutability": "nonpayable",
      "type": "function"
    },
    {
      "inputs": [
        {
          "internalType": "address",
          "name": "operator",
          "type": "address"
        },
        {
          "internalType": "bool",
          "name": "approved",
          "type": "bool"
        }
      ],
      "name": "setApprovalForAll",
      "outputs": [],
      "stateMutability": "nonpayable",
      "type": "function"
    },
    {
      "inputs": [
        {
          "internalType": "string",
          "name": "_name",
          "type": "string"
        }
      ],
      "name": "setName",
      "outputs": [],
      "stateMutability": "nonpayable",
      "type": "function"
    },
    {
      "inputs": [],
      "name": "setParentApproval",
      "outputs": [],
      "stateMutability": "nonpayable",
      "type": "function"
    },
    {
      "inputs": [
        {
          "internalType": "string",
          "name": "_symbol",
          "type": "string"
        }
      ],
      "name": "setSymbol",
      "outputs": [],
      "stateMutability": "nonpayable",
      "type": "function"
    },
    {
      "inputs": [
        {
          "internalType": "string",
          "name": "newuri",
          "type": "string"
        }
      ],
      "name": "setURI",
      "outputs": [],
      "stateMutability": "nonpayable",
      "type": "function"
    },
    {
      "inputs": [
        {
          "internalType": "bytes4",
          "name": "interfaceId",
          "type": "bytes4"
        }
      ],
      "name": "supportsInterface",
      "outputs": [
        {
          "internalType": "bool",
          "name": "",
          "type": "bool"
        }
      ],
      "stateMutability": "view",
      "type": "function"
    },
    {
      "inputs": [],
      "name": "symbol",
      "outputs": [
        {
          "internalType": "string",
          "name": "",
          "type": "string"
        }
      ],
      "stateMutability": "view",
      "type": "function"
    },
    {
      "inputs": [
        {
          "internalType": "address",
          "name": "newOwner",
          "type": "address"
        }
      ],
      "name": "transferOwnership",
      "outputs": [],
      "stateMutability": "nonpayable",
      "type": "function"
    },
    {
      "inputs": [
        {
          "internalType": "uint256",
          "name": "_tokenId",
          "type": "uint256"
        }
      ],
      "name": "uri",
      "outputs": [
        {
          "internalType": "string",
          "name": "",
          "type": "string"
        }
      ],
      "stateMutability": "view",
      "type": "function"
    }
  ],
  "bytecode": "0x60806040523480156200001157600080fd5b5060405162003bc738038062003bc7833981810160405281019062000037919062000318565b604051806020016040528060008152506200005881620000f560201b60201c565b50620000796200006d6200011160201b60201c565b6200011960201b60201c565b826008908051906020019062000091929190620001df565b508160099080519060200190620000aa929190620001df565b5080600460006101000a81548173ffffffffffffffffffffffffffffffffffffffff021916908373ffffffffffffffffffffffffffffffffffffffff1602179055505050506200055e565b80600290805190602001906200010d929190620001df565b5050565b600033905090565b6000600360009054906101000a900473ffffffffffffffffffffffffffffffffffffffff16905081600360006101000a81548173ffffffffffffffffffffffffffffffffffffffff021916908373ffffffffffffffffffffffffffffffffffffffff1602179055508173ffffffffffffffffffffffffffffffffffffffff168173ffffffffffffffffffffffffffffffffffffffff167f8be0079c531659141344cd1fd0a4f28419497f9722a3daafe3b4186f6b6457e060405160405180910390a35050565b828054620001ed9062000469565b90600052602060002090601f0160209004810192826200021157600085556200025d565b82601f106200022c57805160ff19168380011785556200025d565b828001600101855582156200025d579182015b828111156200025c5782518255916020019190600101906200023f565b5b5090506200026c919062000270565b5090565b5b808211156200028b57600081600090555060010162000271565b5090565b6000620002a6620002a084620003c9565b620003a0565b905082815260208101848484011115620002bf57600080fd5b620002cc84828562000433565b509392505050565b600081519050620002e58162000544565b92915050565b600082601f830112620002fd57600080fd5b81516200030f8482602086016200028f565b91505092915050565b6000806000606084860312156200032e57600080fd5b600084015167ffffffffffffffff8111156200034957600080fd5b6200035786828701620002eb565b935050602084015167ffffffffffffffff8111156200037557600080fd5b6200038386828701620002eb565b92505060406200039686828701620002d4565b9150509250925092565b6000620003ac620003bf565b9050620003ba82826200049f565b919050565b6000604051905090565b600067ffffffffffffffff821115620003e757620003e662000504565b5b620003f28262000533565b9050602081019050919050565b60006200040c8262000413565b9050919050565b600073ffffffffffffffffffffffffffffffffffffffff82169050919050565b60005b838110156200045357808201518184015260208101905062000436565b8381111562000463576000848401525b50505050565b600060028204905060018216806200048257607f821691505b60208210811415620004995762000498620004d5565b5b50919050565b620004aa8262000533565b810181811067ffffffffffffffff82111715620004cc57620004cb62000504565b5b80604052505050565b7f4e487b7100000000000000000000000000000000000000000000000000000000600052602260045260246000fd5b7f4e487b7100000000000000000000000000000000000000000000000000000000600052604160045260246000fd5b6000601f19601f8301169050919050565b6200054f81620003ff565b81146200055b57600080fd5b50565b613659806200056e6000396000f3fe608060405234801561001057600080fd5b506004361061014c5760003560e01c8063715018a6116100c3578063b84c82461161007c578063b84c82461461039f578063c47f0027146103bb578063d49e2b59146103d7578063e985e9c5146103e1578063f242432a14610411578063f2fde38b1461042d5761014c565b8063715018a6146102ef57806378a89567146102f95780638da5cb5b1461031757806395d89b411461033557806397492c1c14610353578063a22cb465146103835761014c565b80632eb2c2d6116101155780632eb2c2d61461021b5780632f39352a146102375780633bb3a24d146102555780634e1273f414610285578063655a2b1a146102b557806367f718a9146102d15761014c565b8062fdd58e1461015157806301ffc9a71461018157806302fe5305146101b157806306fdde03146101cd5780630e89341c146101eb575b600080fd5b61016b6004803603810190610166919061255e565b610449565b6040516101789190612d3b565b60405180910390f35b61019b60048036038101906101969190612681565b610512565b6040516101a89190612b5e565b60405180910390f35b6101cb60048036038101906101c691906126d3565b6105f4565b005b6101d561067c565b6040516101e29190612b79565b60405180910390f35b61020560048036038101906102009190612714565b61070e565b6040516102129190612b79565b60405180910390f35b610235600480360381019061023091906123d4565b6107b3565b005b61023f610854565b60405161024c9190612b79565b60405180910390f35b61026f600480360381019061026a9190612714565b6108e2565b60405161027c9190612b79565b60405180910390f35b61029f600480360381019061029a9190612615565b610987565b6040516102ac9190612b05565b60405180910390f35b6102cf60048036038101906102ca919061259a565b610b38565b005b6102d9610bc2565b6040516102e69190612b05565b60405180910390f35b6102f7610c1a565b005b610301610ca2565b60405161030e9190612d3b565b60405180910390f35b61031f610caf565b60405161032c9190612a28565b60405180910390f35b61033d610cd9565b60405161034a9190612b79565b60405180910390f35b61036d60048036038101906103689190612714565b610d6b565b60405161037a9190612d3b565b60405180910390f35b61039d60048036038101906103989190612522565b610d88565b005b6103b960048036038101906103b491906126d3565b610d9e565b005b6103d560048036038101906103d091906126d3565b610e34565b005b6103df610eca565b005b6103fb60048036038101906103f69190612398565b610ef9565b6040516104089190612b5e565b60405180910390f35b61042b60048036038101906104269190612493565b610f8d565b005b6104476004803603810190610442919061236f565b61102e565b005b60008073ffffffffffffffffffffffffffffffffffffffff168373ffffffffffffffffffffffffffffffffffffffff1614156104ba576040517f08c379a00000000000000000000000000000000000000000000000000000000081526004016104b190612bdb565b60405180910390fd5b60008083815260200190815260200160002060008473ffffffffffffffffffffffffffffffffffffffff1673ffffffffffffffffffffffffffffffffffffffff16815260200190815260200160002054905092915050565b60007fd9b67a26000000000000000000000000000000000000000000000000000000007bffffffffffffffffffffffffffffffffffffffffffffffffffffffff1916827bffffffffffffffffffffffffffffffffffffffffffffffffffffffff191614806105dd57507f0e89341c000000000000000000000000000000000000000000000000000000007bffffffffffffffffffffffffffffffffffffffffffffffffffffffff1916827bffffffffffffffffffffffffffffffffffffffffffffffffffffffff1916145b806105ed57506105ec82611126565b5b9050919050565b6105fc611190565b73ffffffffffffffffffffffffffffffffffffffff1661061a610caf565b73ffffffffffffffffffffffffffffffffffffffff1614610670576040517f08c379a000000000000000000000000000000000000000000000000000000000815260040161066790612c9b565b60405180910390fd5b61067981611198565b50565b60606008805461068b90612fdb565b80601f01602080910402602001604051908101604052809291908181526020018280546106b790612fdb565b80156107045780601f106106d957610100808354040283529160200191610704565b820191906000526020600020905b8154815290600101906020018083116106e757829003601f168201915b5050505050905090565b606060076000838152602001908152602001600020805461072e90612fdb565b80601f016020809104026020016040519081016040528092919081815260200182805461075a90612fdb565b80156107a75780601f1061077c576101008083540402835291602001916107a7565b820191906000526020600020905b81548152906001019060200180831161078a57829003601f168201915b50505050509050919050565b6107bb611190565b73ffffffffffffffffffffffffffffffffffffffff168573ffffffffffffffffffffffffffffffffffffffff1614806108015750610800856107fb611190565b610ef9565b5b610840576040517f08c379a000000000000000000000000000000000000000000000000000000000815260040161083790612c5b565b60405180910390fd5b61084d85858585856111b2565b5050505050565b6009805461086190612fdb565b80601f016020809104026020016040519081016040528092919081815260200182805461088d90612fdb565b80156108da5780601f106108af576101008083540402835291602001916108da565b820191906000526020600020905b8154815290600101906020018083116108bd57829003601f168201915b505050505081565b606060076000838152602001908152602001600020805461090290612fdb565b80601f016020809104026020016040519081016040528092919081815260200182805461092e90612fdb565b801561097b5780601f106109505761010080835404028352916020019161097b565b820191906000526020600020905b81548152906001019060200180831161095e57829003601f168201915b50505050509050919050565b606081518351146109cd576040517f08c379a00000000000000000000000000000000000000000000000000000000081526004016109c490612cdb565b60405180910390fd5b6000835167ffffffffffffffff811115610a10577f4e487b7100000000000000000000000000000000000000000000000000000000600052604160045260246000fd5b604051908082528060200260200182016040528015610a3e5781602001602082028036833780820191505090505b50905060005b8451811015610b2d57610ad7858281518110610a89577f4e487b7100000000000000000000000000000000000000000000000000000000600052603260045260246000fd5b6020026020010151858381518110610aca577f4e487b7100000000000000000000000000000000000000000000000000000000600052603260045260246000fd5b6020026020010151610449565b828281518110610b10577f4e487b7100000000000000000000000000000000000000000000000000000000600052603260045260246000fd5b60200260200101818152505080610b269061303e565b9050610a44565b508091505092915050565b610b5384848460405180602001604052806000815250611520565b600583908060018154018082558091505060019003906000526020600020016000909190919091505581600660008581526020019081526020016000208190555080600760008581526020019081526020016000209080519060200190610bbb929190612067565b5050505050565b60606005805480602002602001604051908101604052809291908181526020018280548015610c1057602002820191906000526020600020905b815481526020019060010190808311610bfc575b5050505050905090565b610c22611190565b73ffffffffffffffffffffffffffffffffffffffff16610c40610caf565b73ffffffffffffffffffffffffffffffffffffffff1614610c96576040517f08c379a0000000000000000000000000000000000000000000000000000000008152600401610c8d90612c9b565b60405180910390fd5b610ca060006116d1565b565b6000600580549050905090565b6000600360009054906101000a900473ffffffffffffffffffffffffffffffffffffffff16905090565b606060098054610ce890612fdb565b80601f0160208091040260200160405190810160405280929190818152602001828054610d1490612fdb565b8015610d615780601f10610d3657610100808354040283529160200191610d61565b820191906000526020600020905b815481529060010190602001808311610d4457829003601f168201915b5050505050905090565b600060066000838152602001908152602001600020549050919050565b610d9a610d93611190565b8383611797565b5050565b610da6611190565b73ffffffffffffffffffffffffffffffffffffffff16610dc4610caf565b73ffffffffffffffffffffffffffffffffffffffff1614610e1a576040517f08c379a0000000000000000000000000000000000000000000000000000000008152600401610e1190612c9b565b60405180910390fd5b8060099080519060200190610e30929190612067565b5050565b610e3c611190565b73ffffffffffffffffffffffffffffffffffffffff16610e5a610caf565b73ffffffffffffffffffffffffffffffffffffffff1614610eb0576040517f08c379a0000000000000000000000000000000000000000000000000000000008152600401610ea790612c9b565b60405180910390fd5b8060089080519060200190610ec6929190612067565b5050565b610ef7600460009054906101000a900473ffffffffffffffffffffffffffffffffffffffff166001610d88565b565b6000600160008473ffffffffffffffffffffffffffffffffffffffff1673ffffffffffffffffffffffffffffffffffffffff16815260200190815260200160002060008373ffffffffffffffffffffffffffffffffffffffff1673ffffffffffffffffffffffffffffffffffffffff16815260200190815260200160002060009054906101000a900460ff16905092915050565b610f95611190565b73ffffffffffffffffffffffffffffffffffffffff168573ffffffffffffffffffffffffffffffffffffffff161480610fdb5750610fda85610fd5611190565b610ef9565b5b61101a576040517f08c379a000000000000000000000000000000000000000000000000000000000815260040161101190612c1b565b60405180910390fd5b6110278585858585611904565b5050505050565b611036611190565b73ffffffffffffffffffffffffffffffffffffffff16611054610caf565b73ffffffffffffffffffffffffffffffffffffffff16146110aa576040517f08c379a00000000000000000000000000000000000000000000000000000000081526004016110a190612c9b565b60405180910390fd5b600073ffffffffffffffffffffffffffffffffffffffff168173ffffffffffffffffffffffffffffffffffffffff16141561111a576040517f08c379a000000000000000000000000000000000000000000000000000000000815260040161111190612bfb565b60405180910390fd5b611123816116d1565b50565b60007f01ffc9a7000000000000000000000000000000000000000000000000000000007bffffffffffffffffffffffffffffffffffffffffffffffffffffffff1916827bffffffffffffffffffffffffffffffffffffffffffffffffffffffff1916149050919050565b600033905090565b80600290805190602001906111ae929190612067565b5050565b81518351146111f6576040517f08c379a00000000000000000000000000000000000000000000000000000000081526004016111ed90612cfb565b60405180910390fd5b600073ffffffffffffffffffffffffffffffffffffffff168473ffffffffffffffffffffffffffffffffffffffff161415611266576040517f08c379a000000000000000000000000000000000000000000000000000000000815260040161125d90612c3b565b60405180910390fd5b6000611270611190565b9050611280818787878787611ba0565b60005b845181101561147d5760008582815181106112c7577f4e487b7100000000000000000000000000000000000000000000000000000000600052603260045260246000fd5b60200260200101519050600085838151811061130c577f4e487b7100000000000000000000000000000000000000000000000000000000600052603260045260246000fd5b60200260200101519050600080600084815260200190815260200160002060008b73ffffffffffffffffffffffffffffffffffffffff1673ffffffffffffffffffffffffffffffffffffffff168152602001908152602001600020549050818110156113ad576040517f08c379a00000000000000000000000000000000000000000000000000000000081526004016113a490612c7b565b60405180910390fd5b81810360008085815260200190815260200160002060008c73ffffffffffffffffffffffffffffffffffffffff1673ffffffffffffffffffffffffffffffffffffffff168152602001908152602001600020819055508160008085815260200190815260200160002060008b73ffffffffffffffffffffffffffffffffffffffff1673ffffffffffffffffffffffffffffffffffffffff16815260200190815260200160002060008282546114629190612ecf565b92505081905550505050806114769061303e565b9050611283565b508473ffffffffffffffffffffffffffffffffffffffff168673ffffffffffffffffffffffffffffffffffffffff168273ffffffffffffffffffffffffffffffffffffffff167f4a39dc06d4c0dbc64b70af90fd698a233a518aa5d07e595d983b8c0526c8f7fb87876040516114f4929190612b27565b60405180910390a461150a818787878787611ba8565b611518818787878787611bb0565b505050505050565b600073ffffffffffffffffffffffffffffffffffffffff168473ffffffffffffffffffffffffffffffffffffffff161415611590576040517f08c379a000000000000000000000000000000000000000000000000000000000815260040161158790612d1b565b60405180910390fd5b600061159a611190565b905060006115a785611d97565b905060006115b485611d97565b90506115c583600089858589611ba0565b8460008088815260200190815260200160002060008973ffffffffffffffffffffffffffffffffffffffff1673ffffffffffffffffffffffffffffffffffffffff16815260200190815260200160002060008282546116249190612ecf565b925050819055508673ffffffffffffffffffffffffffffffffffffffff16600073ffffffffffffffffffffffffffffffffffffffff168473ffffffffffffffffffffffffffffffffffffffff167fc3d58168c5ae7397731d063d5bbf3d657854427343f4c083240f7aacaa2d0f6289896040516116a2929190612d56565b60405180910390a46116b983600089858589611ba8565b6116c883600089898989611e5d565b50505050505050565b6000600360009054906101000a900473ffffffffffffffffffffffffffffffffffffffff16905081600360006101000a81548173ffffffffffffffffffffffffffffffffffffffff021916908373ffffffffffffffffffffffffffffffffffffffff1602179055508173ffffffffffffffffffffffffffffffffffffffff168173ffffffffffffffffffffffffffffffffffffffff167f8be0079c531659141344cd1fd0a4f28419497f9722a3daafe3b4186f6b6457e060405160405180910390a35050565b8173ffffffffffffffffffffffffffffffffffffffff168373ffffffffffffffffffffffffffffffffffffffff161415611806576040517f08c379a00000000000000000000000000000000000000000000000000000000081526004016117fd90612cbb565b60405180910390fd5b80600160008573ffffffffffffffffffffffffffffffffffffffff1673ffffffffffffffffffffffffffffffffffffffff16815260200190815260200160002060008473ffffffffffffffffffffffffffffffffffffffff1673ffffffffffffffffffffffffffffffffffffffff16815260200190815260200160002060006101000a81548160ff0219169083151502179055508173ffffffffffffffffffffffffffffffffffffffff168373ffffffffffffffffffffffffffffffffffffffff167f17307eab39ab6107e8899845ad3d59bd9653f200f220920489ca2b5937696c31836040516118f79190612b5e565b60405180910390a3505050565b600073ffffffffffffffffffffffffffffffffffffffff168473ffffffffffffffffffffffffffffffffffffffff161415611974576040517f08c379a000000000000000000000000000000000000000000000000000000000815260040161196b90612c3b565b60405180910390fd5b600061197e611190565b9050600061198b85611d97565b9050600061199885611d97565b90506119a8838989858589611ba0565b600080600088815260200190815260200160002060008a73ffffffffffffffffffffffffffffffffffffffff1673ffffffffffffffffffffffffffffffffffffffff16815260200190815260200160002054905085811015611a3f576040517f08c379a0000000000000000000000000000000000000000000000000000000008152600401611a3690612c7b565b60405180910390fd5b85810360008089815260200190815260200160002060008b73ffffffffffffffffffffffffffffffffffffffff1673ffffffffffffffffffffffffffffffffffffffff168152602001908152602001600020819055508560008089815260200190815260200160002060008a73ffffffffffffffffffffffffffffffffffffffff1673ffffffffffffffffffffffffffffffffffffffff1681526020019081526020016000206000828254611af49190612ecf565b925050819055508773ffffffffffffffffffffffffffffffffffffffff168973ffffffffffffffffffffffffffffffffffffffff168573ffffffffffffffffffffffffffffffffffffffff167fc3d58168c5ae7397731d063d5bbf3d657854427343f4c083240f7aacaa2d0f628a8a604051611b71929190612d56565b60405180910390a4611b87848a8a86868a611ba8565b611b95848a8a8a8a8a611e5d565b505050505050505050565b505050505050565b505050505050565b611bcf8473ffffffffffffffffffffffffffffffffffffffff16612044565b15611d8f578373ffffffffffffffffffffffffffffffffffffffff1663bc197c8187878686866040518663ffffffff1660e01b8152600401611c15959493929190612a43565b602060405180830381600087803b158015611c2f57600080fd5b505af1925050508015611c6057506040513d601f19601f82011682018060405250810190611c5d91906126aa565b60015b611d0657611c6c613114565b806308c379a01415611cc95750611c81613531565b80611c8c5750611ccb565b806040517f08c379a0000000000000000000000000000000000000000000000000000000008152600401611cc09190612b79565b60405180910390fd5b505b6040517f08c379a0000000000000000000000000000000000000000000000000000000008152600401611cfd90612b9b565b60405180910390fd5b63bc197c8160e01b7bffffffffffffffffffffffffffffffffffffffffffffffffffffffff1916817bffffffffffffffffffffffffffffffffffffffffffffffffffffffff191614611d8d576040517f08c379a0000000000000000000000000000000000000000000000000000000008152600401611d8490612bbb565b60405180910390fd5b505b505050505050565b60606000600167ffffffffffffffff811115611ddc577f4e487b7100000000000000000000000000000000000000000000000000000000600052604160045260246000fd5b604051908082528060200260200182016040528015611e0a5781602001602082028036833780820191505090505b5090508281600081518110611e48577f4e487b7100000000000000000000000000000000000000000000000000000000600052603260045260246000fd5b60200260200101818152505080915050919050565b611e7c8473ffffffffffffffffffffffffffffffffffffffff16612044565b1561203c578373ffffffffffffffffffffffffffffffffffffffff1663f23a6e6187878686866040518663ffffffff1660e01b8152600401611ec2959493929190612aab565b602060405180830381600087803b158015611edc57600080fd5b505af1925050508015611f0d57506040513d601f19601f82011682018060405250810190611f0a91906126aa565b60015b611fb357611f19613114565b806308c379a01415611f765750611f2e613531565b80611f395750611f78565b806040517f08c379a0000000000000000000000000000000000000000000000000000000008152600401611f6d9190612b79565b60405180910390fd5b505b6040517f08c379a0000000000000000000000000000000000000000000000000000000008152600401611faa90612b9b565b60405180910390fd5b63f23a6e6160e01b7bffffffffffffffffffffffffffffffffffffffffffffffffffffffff1916817bffffffffffffffffffffffffffffffffffffffffffffffffffffffff19161461203a576040517f08c379a000000000000000000000000000000000000000000000000000000000815260040161203190612bbb565b60405180910390fd5b505b505050505050565b6000808273ffffffffffffffffffffffffffffffffffffffff163b119050919050565b82805461207390612fdb565b90600052602060002090601f01602090048101928261209557600085556120dc565b82601f106120ae57805160ff19168380011785556120dc565b828001600101855582156120dc579182015b828111156120db5782518255916020019190600101906120c0565b5b5090506120e991906120ed565b5090565b5b808211156121065760008160009055506001016120ee565b5090565b600061211d61211884612da4565b612d7f565b9050808382526020820190508285602086028201111561213c57600080fd5b60005b8581101561216c5781612152888261225e565b84526020840193506020830192505060018101905061213f565b5050509392505050565b600061218961218484612dd0565b612d7f565b905080838252602082019050828560208602820111156121a857600080fd5b60005b858110156121d857816121be888261235a565b8452602084019350602083019250506001810190506121ab565b5050509392505050565b60006121f56121f084612dfc565b612d7f565b90508281526020810184848401111561220d57600080fd5b612218848285612f99565b509392505050565b600061223361222e84612e2d565b612d7f565b90508281526020810184848401111561224b57600080fd5b612256848285612f99565b509392505050565b60008135905061226d816135c7565b92915050565b600082601f83011261228457600080fd5b813561229484826020860161210a565b91505092915050565b600082601f8301126122ae57600080fd5b81356122be848260208601612176565b91505092915050565b6000813590506122d6816135de565b92915050565b6000813590506122eb816135f5565b92915050565b600081519050612300816135f5565b92915050565b600082601f83011261231757600080fd5b81356123278482602086016121e2565b91505092915050565b600082601f83011261234157600080fd5b8135612351848260208601612220565b91505092915050565b6000813590506123698161360c565b92915050565b60006020828403121561238157600080fd5b600061238f8482850161225e565b91505092915050565b600080604083850312156123ab57600080fd5b60006123b98582860161225e565b92505060206123ca8582860161225e565b9150509250929050565b600080600080600060a086880312156123ec57600080fd5b60006123fa8882890161225e565b955050602061240b8882890161225e565b945050604086013567ffffffffffffffff81111561242857600080fd5b6124348882890161229d565b935050606086013567ffffffffffffffff81111561245157600080fd5b61245d8882890161229d565b925050608086013567ffffffffffffffff81111561247a57600080fd5b61248688828901612306565b9150509295509295909350565b600080600080600060a086880312156124ab57600080fd5b60006124b98882890161225e565b95505060206124ca8882890161225e565b94505060406124db8882890161235a565b93505060606124ec8882890161235a565b925050608086013567ffffffffffffffff81111561250957600080fd5b61251588828901612306565b9150509295509295909350565b6000806040838503121561253557600080fd5b60006125438582860161225e565b9250506020612554858286016122c7565b9150509250929050565b6000806040838503121561257157600080fd5b600061257f8582860161225e565b92505060206125908582860161235a565b9150509250929050565b600080600080608085870312156125b057600080fd5b60006125be8782880161225e565b94505060206125cf8782880161235a565b93505060406125e08782880161235a565b925050606085013567ffffffffffffffff8111156125fd57600080fd5b61260987828801612330565b91505092959194509250565b6000806040838503121561262857600080fd5b600083013567ffffffffffffffff81111561264257600080fd5b61264e85828601612273565b925050602083013567ffffffffffffffff81111561266b57600080fd5b6126778582860161229d565b9150509250929050565b60006020828403121561269357600080fd5b60006126a1848285016122dc565b91505092915050565b6000602082840312156126bc57600080fd5b60006126ca848285016122f1565b91505092915050565b6000602082840312156126e557600080fd5b600082013567ffffffffffffffff8111156126ff57600080fd5b61270b84828501612330565b91505092915050565b60006020828403121561272657600080fd5b60006127348482850161235a565b91505092915050565b60006127498383612a0a565b60208301905092915050565b61275e81612f25565b82525050565b600061276f82612e6e565b6127798185612e9c565b935061278483612e5e565b8060005b838110156127b557815161279c888261273d565b97506127a783612e8f565b925050600181019050612788565b5085935050505092915050565b6127cb81612f37565b82525050565b60006127dc82612e79565b6127e68185612ead565b93506127f6818560208601612fa8565b6127ff81613136565b840191505092915050565b600061281582612e84565b61281f8185612ebe565b935061282f818560208601612fa8565b61283881613136565b840191505092915050565b6000612850603483612ebe565b915061285b82613154565b604082019050919050565b6000612873602883612ebe565b915061287e826131a3565b604082019050919050565b6000612896602b83612ebe565b91506128a1826131f2565b604082019050919050565b60006128b9602683612ebe565b91506128c482613241565b604082019050919050565b60006128dc602983612ebe565b91506128e782613290565b604082019050919050565b60006128ff602583612ebe565b915061290a826132df565b604082019050919050565b6000612922603283612ebe565b915061292d8261332e565b604082019050919050565b6000612945602a83612ebe565b91506129508261337d565b604082019050919050565b6000612968602083612ebe565b9150612973826133cc565b602082019050919050565b600061298b602983612ebe565b9150612996826133f5565b604082019050919050565b60006129ae602983612ebe565b91506129b982613444565b604082019050919050565b60006129d1602883612ebe565b91506129dc82613493565b604082019050919050565b60006129f4602183612ebe565b91506129ff826134e2565b604082019050919050565b612a1381612f8f565b82525050565b612a2281612f8f565b82525050565b6000602082019050612a3d6000830184612755565b92915050565b600060a082019050612a586000830188612755565b612a656020830187612755565b8181036040830152612a778186612764565b90508181036060830152612a8b8185612764565b90508181036080830152612a9f81846127d1565b90509695505050505050565b600060a082019050612ac06000830188612755565b612acd6020830187612755565b612ada6040830186612a19565b612ae76060830185612a19565b8181036080830152612af981846127d1565b90509695505050505050565b60006020820190508181036000830152612b1f8184612764565b905092915050565b60006040820190508181036000830152612b418185612764565b90508181036020830152612b558184612764565b90509392505050565b6000602082019050612b7360008301846127c2565b92915050565b60006020820190508181036000830152612b93818461280a565b905092915050565b60006020820190508181036000830152612bb481612843565b9050919050565b60006020820190508181036000830152612bd481612866565b9050919050565b60006020820190508181036000830152612bf481612889565b9050919050565b60006020820190508181036000830152612c14816128ac565b9050919050565b60006020820190508181036000830152612c34816128cf565b9050919050565b60006020820190508181036000830152612c54816128f2565b9050919050565b60006020820190508181036000830152612c7481612915565b9050919050565b60006020820190508181036000830152612c9481612938565b9050919050565b60006020820190508181036000830152612cb48161295b565b9050919050565b60006020820190508181036000830152612cd48161297e565b9050919050565b60006020820190508181036000830152612cf4816129a1565b9050919050565b60006020820190508181036000830152612d14816129c4565b9050919050565b60006020820190508181036000830152612d34816129e7565b9050919050565b6000602082019050612d506000830184612a19565b92915050565b6000604082019050612d6b6000830185612a19565b612d786020830184612a19565b9392505050565b6000612d89612d9a565b9050612d95828261300d565b919050565b6000604051905090565b600067ffffffffffffffff821115612dbf57612dbe6130e5565b5b602082029050602081019050919050565b600067ffffffffffffffff821115612deb57612dea6130e5565b5b602082029050602081019050919050565b600067ffffffffffffffff821115612e1757612e166130e5565b5b612e2082613136565b9050602081019050919050565b600067ffffffffffffffff821115612e4857612e476130e5565b5b612e5182613136565b9050602081019050919050565b6000819050602082019050919050565b600081519050919050565b600081519050919050565b600081519050919050565b6000602082019050919050565b600082825260208201905092915050565b600082825260208201905092915050565b600082825260208201905092915050565b6000612eda82612f8f565b9150612ee583612f8f565b9250827fffffffffffffffffffffffffffffffffffffffffffffffffffffffffffffffff03821115612f1a57612f19613087565b5b828201905092915050565b6000612f3082612f6f565b9050919050565b60008115159050919050565b60007fffffffff0000000000000000000000000000000000000000000000000000000082169050919050565b600073ffffffffffffffffffffffffffffffffffffffff82169050919050565b6000819050919050565b82818337600083830152505050565b60005b83811015612fc6578082015181840152602081019050612fab565b83811115612fd5576000848401525b50505050565b60006002820490506001821680612ff357607f821691505b60208210811415613007576130066130b6565b5b50919050565b61301682613136565b810181811067ffffffffffffffff82111715613035576130346130e5565b5b80604052505050565b600061304982612f8f565b91507fffffffffffffffffffffffffffffffffffffffffffffffffffffffffffffffff82141561307c5761307b613087565b5b600182019050919050565b7f4e487b7100000000000000000000000000000000000000000000000000000000600052601160045260246000fd5b7f4e487b7100000000000000000000000000000000000000000000000000000000600052602260045260246000fd5b7f4e487b7100000000000000000000000000000000000000000000000000000000600052604160045260246000fd5b600060033d11156131335760046000803e613130600051613147565b90505b90565b6000601f19601f8301169050919050565b60008160e01c9050919050565b7f455243313135353a207472616e7366657220746f206e6f6e204552433131353560008201527f526563656976657220696d706c656d656e746572000000000000000000000000602082015250565b7f455243313135353a204552433131353552656365697665722072656a6563746560008201527f6420746f6b656e73000000000000000000000000000000000000000000000000602082015250565b7f455243313135353a2062616c616e636520717565727920666f7220746865207a60008201527f65726f2061646472657373000000000000000000000000000000000000000000602082015250565b7f4f776e61626c653a206e6577206f776e657220697320746865207a65726f206160008201527f6464726573730000000000000000000000000000000000000000000000000000602082015250565b7f455243313135353a2063616c6c6572206973206e6f74206f776e6572206e6f7260008201527f20617070726f7665640000000000000000000000000000000000000000000000602082015250565b7f455243313135353a207472616e7366657220746f20746865207a65726f20616460008201527f6472657373000000000000000000000000000000000000000000000000000000602082015250565b7f455243313135353a207472616e736665722063616c6c6572206973206e6f742060008201527f6f776e6572206e6f7220617070726f7665640000000000000000000000000000602082015250565b7f455243313135353a20696e73756666696369656e742062616c616e636520666f60008201527f72207472616e7366657200000000000000000000000000000000000000000000602082015250565b7f4f776e61626c653a2063616c6c6572206973206e6f7420746865206f776e6572600082015250565b7f455243313135353a2073657474696e6720617070726f76616c2073746174757360008201527f20666f722073656c660000000000000000000000000000000000000000000000602082015250565b7f455243313135353a206163636f756e747320616e6420696473206c656e67746860008201527f206d69736d617463680000000000000000000000000000000000000000000000602082015250565b7f455243313135353a2069647320616e6420616d6f756e7473206c656e6774682060008201527f6d69736d61746368000000000000000000000000000000000000000000000000602082015250565b7f455243313135353a206d696e7420746f20746865207a65726f2061646472657360008201527f7300000000000000000000000000000000000000000000000000000000000000602082015250565b600060443d1015613541576135c4565b613549612d9a565b60043d036004823e80513d602482011167ffffffffffffffff821117156135715750506135c4565b808201805167ffffffffffffffff81111561358f57505050506135c4565b80602083010160043d0385018111156135ac5750505050506135c4565b6135bb8260200185018661300d565b82955050505050505b90565b6135d081612f25565b81146135db57600080fd5b50565b6135e781612f37565b81146135f257600080fd5b50565b6135fe81612f43565b811461360957600080fd5b50565b61361581612f8f565b811461362057600080fd5b5056fea2646970667358221220b283a6202c3982905cfbad727a7f2e9d2c9f4b9fe3e532ec6bb475c79e239be764736f6c63430008040033",
  "linkReferences": {},
  "deployedLinkReferences": {}
}