{
  "_format": "hh-sol-artifact-1",
  "contractName": "NFTMarketplace",
  "sourceName": "contracts/NFTMarketplace.sol",
  "abi": [
    {
      "inputs": [],
      "stateMutability": "nonpayable",
      "type": "constructor"
    },
    {
      "anonymous": false,
      "inputs": [
        {
          "indexed": true,
          "internalType": "uint256",
          "name": "tokenId",
          "type": "uint256"
        },
        {
          "indexed": true,
          "internalType": "address",
          "name": "nftContract",
          "type": "address"
        },
        {
          "indexed": false,
          "internalType": "address",
          "name": "seller",
          "type": "address"
        },
        {
          "indexed": false,
          "internalType": "address",
          "name": "bidder",
          "type": "address"
        },
        {
          "indexed": false,
          "internalType": "uint256",
          "name": "balance",
          "type": "uint256"
        }
      ],
      "name": "BidderWithdraw",
      "type": "event"
    },
    {
      "anonymous": false,
      "inputs": [
        {
          "indexed": true,
          "internalType": "uint256",
          "name": "tokenId",
          "type": "uint256"
        },
        {
          "indexed": true,
          "internalType": "address",
          "name": "nftContract",
          "type": "address"
        },
        {
          "indexed": false,
          "internalType": "address",
          "name": "seller",
          "type": "address"
        },
        {
          "indexed": false,
          "internalType": "bool",
          "name": "isMultiToken",
          "type": "bool"
        },
        {
          "indexed": false,
          "internalType": "address",
          "name": "highestBidder",
          "type": "address"
        },
        {
          "indexed": false,
          "internalType": "uint256",
          "name": "highestBid",
          "type": "uint256"
        },
        {
          "indexed": false,
          "internalType": "uint256",
          "name": "endTime",
          "type": "uint256"
        }
      ],
      "name": "MarketItemAuctionEnded",
      "type": "event"
    },
    {
      "anonymous": false,
      "inputs": [
        {
          "indexed": true,
          "internalType": "uint256",
          "name": "tokenId",
          "type": "uint256"
        },
        {
          "indexed": true,
          "internalType": "address",
          "name": "nftContract",
          "type": "address"
        },
        {
          "indexed": false,
          "internalType": "address",
          "name": "seller",
          "type": "address"
        },
        {
          "indexed": false,
          "internalType": "bool",
          "name": "isMultiToken",
          "type": "bool"
        },
        {
          "indexed": false,
          "internalType": "uint256",
          "name": "startingPrice",
          "type": "uint256"
        },
        {
          "indexed": false,
          "internalType": "uint256",
          "name": "startTime",
          "type": "uint256"
        },
        {
          "indexed": false,
          "internalType": "uint256",
          "name": "endTime",
          "type": "uint256"
        }
      ],
      "name": "MarketItemAuctionListed",
      "type": "event"
    },
    {
      "anonymous": false,
      "inputs": [
        {
          "indexed": true,
          "internalType": "uint256",
          "name": "tokenId",
          "type": "uint256"
        },
        {
          "indexed": true,
          "internalType": "address",
          "name": "nftContract",
          "type": "address"
        },
        {
          "indexed": false,
          "internalType": "address",
          "name": "seller",
          "type": "address"
        },
        {
          "indexed": false,
          "internalType": "address",
          "name": "bidder",
          "type": "address"
        },
        {
          "indexed": false,
          "internalType": "uint256",
          "name": "bid",
          "type": "uint256"
        },
        {
          "indexed": false,
          "internalType": "uint256",
          "name": "bidTime",
          "type": "uint256"
        }
      ],
      "name": "MarketItemBidded",
      "type": "event"
    },
    {
      "anonymous": false,
      "inputs": [
        {
          "indexed": true,
          "internalType": "uint256",
          "name": "tokenId",
          "type": "uint256"
        },
        {
          "indexed": true,
          "internalType": "address",
          "name": "nftContract",
          "type": "address"
        },
        {
          "indexed": false,
          "internalType": "address",
          "name": "owner",
          "type": "address"
        },
        {
          "indexed": false,
          "internalType": "bool",
          "name": "isMultiToken",
          "type": "bool"
        },
        {
          "indexed": false,
          "internalType": "uint256",
          "name": "price",
          "type": "uint256"
        }
      ],
      "name": "MarketItemCancelListed",
      "type": "event"
    },
    {
      "anonymous": false,
      "inputs": [
        {
          "indexed": true,
          "internalType": "uint256",
          "name": "tokenId",
          "type": "uint256"
        },
        {
          "indexed": true,
          "internalType": "address",
          "name": "nftContract",
          "type": "address"
        },
        {
          "indexed": false,
          "internalType": "address",
          "name": "owner",
          "type": "address"
        },
        {
          "indexed": false,
          "internalType": "bool",
          "name": "isMultiToken",
          "type": "bool"
        }
      ],
      "name": "MarketItemCreated",
      "type": "event"
    },
    {
      "anonymous": false,
      "inputs": [
        {
          "indexed": true,
          "internalType": "uint256",
          "name": "tokenId",
          "type": "uint256"
        },
        {
          "indexed": true,
          "internalType": "address",
          "name": "nftContract",
          "type": "address"
        },
        {
          "indexed": false,
          "internalType": "address",
          "name": "owner",
          "type": "address"
        },
        {
          "indexed": false,
          "internalType": "bool",
          "name": "isMultiToken",
          "type": "bool"
        },
        {
          "indexed": false,
          "internalType": "uint256",
          "name": "price",
          "type": "uint256"
        }
      ],
      "name": "MarketItemListed",
      "type": "event"
    },
    {
      "anonymous": false,
      "inputs": [
        {
          "indexed": true,
          "internalType": "uint256",
          "name": "tokenId",
          "type": "uint256"
        },
        {
          "indexed": true,
          "internalType": "address",
          "name": "nftContract",
          "type": "address"
        },
        {
          "indexed": false,
          "internalType": "address",
          "name": "seller",
          "type": "address"
        },
        {
          "indexed": false,
          "internalType": "address",
          "name": "buyer",
          "type": "address"
        },
        {
          "indexed": false,
          "internalType": "uint256",
          "name": "price",
          "type": "uint256"
        }
      ],
      "name": "MarketItemSold",
      "type": "event"
    },
    {
      "inputs": [
        {
          "internalType": "uint256",
          "name": "tokenId",
          "type": "uint256"
        }
      ],
      "name": "bid",
      "outputs": [],
      "stateMutability": "payable",
      "type": "function"
    },
    {
      "inputs": [
        {
          "internalType": "uint256",
          "name": "tokenId",
          "type": "uint256"
        }
      ],
      "name": "cancelListingItem",
      "outputs": [],
      "stateMutability": "payable",
      "type": "function"
    },
    {
      "inputs": [
        {
          "internalType": "address",
          "name": "nftContract",
          "type": "address"
        },
        {
          "internalType": "string",
          "name": "tokenUri",
          "type": "string"
        },
        {
          "internalType": "bool",
          "name": "isMultiToken",
          "type": "bool"
        }
      ],
      "name": "createMarketItem",
      "outputs": [],
      "stateMutability": "payable",
      "type": "function"
    },
    {
      "inputs": [
        {
          "internalType": "uint256",
          "name": "tokenId",
          "type": "uint256"
        }
      ],
      "name": "createMarketSale",
      "outputs": [],
      "stateMutability": "payable",
      "type": "function"
    },
    {
      "inputs": [
        {
          "internalType": "uint256",
          "name": "tokenId",
          "type": "uint256"
        }
      ],
      "name": "endAuction",
      "outputs": [],
      "stateMutability": "payable",
      "type": "function"
    },
    {
      "inputs": [
        {
          "internalType": "uint256",
          "name": "cursor",
          "type": "uint256"
        },
        {
          "internalType": "uint256",
          "name": "howMany",
          "type": "uint256"
        }
      ],
      "name": "fetchAllNFTs",
      "outputs": [
        {
          "components": [
            {
              "internalType": "uint256",
              "name": "tokenId",
              "type": "uint256"
            },
            {
              "internalType": "address",
              "name": "nftContract",
              "type": "address"
            },
            {
              "internalType": "address payable",
              "name": "seller",
              "type": "address"
            },
            {
              "internalType": "address payable",
              "name": "owner",
              "type": "address"
            },
            {
              "internalType": "uint256",
              "name": "price",
              "type": "uint256"
            },
            {
              "internalType": "bool",
              "name": "sold",
              "type": "bool"
            },
            {
              "internalType": "bool",
              "name": "bidded",
              "type": "bool"
            },
            {
              "internalType": "bool",
              "name": "isMultiToken",
              "type": "bool"
            },
            {
              "components": [
                {
                  "internalType": "uint256",
                  "name": "startAt",
                  "type": "uint256"
                },
                {
                  "internalType": "uint256",
                  "name": "endAt",
                  "type": "uint256"
                },
                {
                  "internalType": "address",
                  "name": "highestBidder",
                  "type": "address"
                },
                {
                  "internalType": "uint256",
                  "name": "highestBid",
                  "type": "uint256"
                },
                {
                  "internalType": "uint256",
                  "name": "highestBidTime",
                  "type": "uint256"
                },
                {
                  "internalType": "uint256",
                  "name": "startingPrice",
                  "type": "uint256"
                },
                {
                  "components": [
                    {
                      "internalType": "address",
                      "name": "bidder",
                      "type": "address"
                    },
                    {
                      "internalType": "uint256",
                      "name": "bid",
                      "type": "uint256"
                    },
                    {
                      "internalType": "uint256",
                      "name": "bidTime",
                      "type": "uint256"
                    }
                  ],
                  "internalType": "struct NFTMarketplace.Bid[]",
                  "name": "bids",
                  "type": "tuple[]"
                }
              ],
              "internalType": "struct NFTMarketplace.AuctionInfo",
              "name": "auctionInfo",
              "type": "tuple"
            }
          ],
          "internalType": "struct NFTMarketplace.MarketItem[]",
          "name": "items",
          "type": "tuple[]"
        },
        {
          "internalType": "uint256",
          "name": "newCursor",
          "type": "uint256"
        },
        {
          "internalType": "uint256",
          "name": "totalItemCount",
          "type": "uint256"
        }
      ],
      "stateMutability": "view",
      "type": "function"
    },
    {
      "inputs": [],
      "name": "fetchAvailableBiddedAuction",
      "outputs": [
        {
          "components": [
            {
              "internalType": "uint256",
              "name": "tokenId",
              "type": "uint256"
            },
            {
              "internalType": "address",
              "name": "nftContract",
              "type": "address"
            },
            {
              "internalType": "address payable",
              "name": "seller",
              "type": "address"
            },
            {
              "internalType": "address payable",
              "name": "owner",
              "type": "address"
            },
            {
              "internalType": "uint256",
              "name": "price",
              "type": "uint256"
            },
            {
              "internalType": "bool",
              "name": "sold",
              "type": "bool"
            },
            {
              "internalType": "bool",
              "name": "bidded",
              "type": "bool"
            },
            {
              "internalType": "bool",
              "name": "isMultiToken",
              "type": "bool"
            },
            {
              "components": [
                {
                  "internalType": "uint256",
                  "name": "startAt",
                  "type": "uint256"
                },
                {
                  "internalType": "uint256",
                  "name": "endAt",
                  "type": "uint256"
                },
                {
                  "internalType": "address",
                  "name": "highestBidder",
                  "type": "address"
                },
                {
                  "internalType": "uint256",
                  "name": "highestBid",
                  "type": "uint256"
                },
                {
                  "internalType": "uint256",
                  "name": "highestBidTime",
                  "type": "uint256"
                },
                {
                  "internalType": "uint256",
                  "name": "startingPrice",
                  "type": "uint256"
                },
                {
                  "components": [
                    {
                      "internalType": "address",
                      "name": "bidder",
                      "type": "address"
                    },
                    {
                      "internalType": "uint256",
                      "name": "bid",
                      "type": "uint256"
                    },
                    {
                      "internalType": "uint256",
                      "name": "bidTime",
                      "type": "uint256"
                    }
                  ],
                  "internalType": "struct NFTMarketplace.Bid[]",
                  "name": "bids",
                  "type": "tuple[]"
                }
              ],
              "internalType": "struct NFTMarketplace.AuctionInfo",
              "name": "auctionInfo",
              "type": "tuple"
            }
          ],
          "internalType": "struct NFTMarketplace.MarketItem[]",
          "name": "items",
          "type": "tuple[]"
        }
      ],
      "stateMutability": "view",
      "type": "function"
    },
    {
      "inputs": [],
      "name": "fetchAvailableMarketItems",
      "outputs": [
        {
          "components": [
            {
              "internalType": "uint256",
              "name": "tokenId",
              "type": "uint256"
            },
            {
              "internalType": "address",
              "name": "nftContract",
              "type": "address"
            },
            {
              "internalType": "address payable",
              "name": "seller",
              "type": "address"
            },
            {
              "internalType": "address payable",
              "name": "owner",
              "type": "address"
            },
            {
              "internalType": "uint256",
              "name": "price",
              "type": "uint256"
            },
            {
              "internalType": "bool",
              "name": "sold",
              "type": "bool"
            },
            {
              "internalType": "bool",
              "name": "bidded",
              "type": "bool"
            },
            {
              "internalType": "bool",
              "name": "isMultiToken",
              "type": "bool"
            },
            {
              "components": [
                {
                  "internalType": "uint256",
                  "name": "startAt",
                  "type": "uint256"
                },
                {
                  "internalType": "uint256",
                  "name": "endAt",
                  "type": "uint256"
                },
                {
                  "internalType": "address",
                  "name": "highestBidder",
                  "type": "address"
                },
                {
                  "internalType": "uint256",
                  "name": "highestBid",
                  "type": "uint256"
                },
                {
                  "internalType": "uint256",
                  "name": "highestBidTime",
                  "type": "uint256"
                },
                {
                  "internalType": "uint256",
                  "name": "startingPrice",
                  "type": "uint256"
                },
                {
                  "components": [
                    {
                      "internalType": "address",
                      "name": "bidder",
                      "type": "address"
                    },
                    {
                      "internalType": "uint256",
                      "name": "bid",
                      "type": "uint256"
                    },
                    {
                      "internalType": "uint256",
                      "name": "bidTime",
                      "type": "uint256"
                    }
                  ],
                  "internalType": "struct NFTMarketplace.Bid[]",
                  "name": "bids",
                  "type": "tuple[]"
                }
              ],
              "internalType": "struct NFTMarketplace.AuctionInfo",
              "name": "auctionInfo",
              "type": "tuple"
            }
          ],
          "internalType": "struct NFTMarketplace.MarketItem[]",
          "name": "items",
          "type": "tuple[]"
        }
      ],
      "stateMutability": "view",
      "type": "function"
    },
    {
      "inputs": [],
      "name": "fetchItemsListed",
      "outputs": [
        {
          "components": [
            {
              "internalType": "uint256",
              "name": "tokenId",
              "type": "uint256"
            },
            {
              "internalType": "address",
              "name": "nftContract",
              "type": "address"
            },
            {
              "internalType": "address payable",
              "name": "seller",
              "type": "address"
            },
            {
              "internalType": "address payable",
              "name": "owner",
              "type": "address"
            },
            {
              "internalType": "uint256",
              "name": "price",
              "type": "uint256"
            },
            {
              "internalType": "bool",
              "name": "sold",
              "type": "bool"
            },
            {
              "internalType": "bool",
              "name": "bidded",
              "type": "bool"
            },
            {
              "internalType": "bool",
              "name": "isMultiToken",
              "type": "bool"
            },
            {
              "components": [
                {
                  "internalType": "uint256",
                  "name": "startAt",
                  "type": "uint256"
                },
                {
                  "internalType": "uint256",
                  "name": "endAt",
                  "type": "uint256"
                },
                {
                  "internalType": "address",
                  "name": "highestBidder",
                  "type": "address"
                },
                {
                  "internalType": "uint256",
                  "name": "highestBid",
                  "type": "uint256"
                },
                {
                  "internalType": "uint256",
                  "name": "highestBidTime",
                  "type": "uint256"
                },
                {
                  "internalType": "uint256",
                  "name": "startingPrice",
                  "type": "uint256"
                },
                {
                  "components": [
                    {
                      "internalType": "address",
                      "name": "bidder",
                      "type": "address"
                    },
                    {
                      "internalType": "uint256",
                      "name": "bid",
                      "type": "uint256"
                    },
                    {
                      "internalType": "uint256",
                      "name": "bidTime",
                      "type": "uint256"
                    }
                  ],
                  "internalType": "struct NFTMarketplace.Bid[]",
                  "name": "bids",
                  "type": "tuple[]"
                }
              ],
              "internalType": "struct NFTMarketplace.AuctionInfo",
              "name": "auctionInfo",
              "type": "tuple"
            }
          ],
          "internalType": "struct NFTMarketplace.MarketItem[]",
          "name": "items",
          "type": "tuple[]"
        }
      ],
      "stateMutability": "view",
      "type": "function"
    },
    {
      "inputs": [
        {
          "internalType": "uint256",
          "name": "_id",
          "type": "uint256"
        }
      ],
      "name": "fetchMarketItem",
      "outputs": [
        {
          "components": [
            {
              "internalType": "uint256",
              "name": "tokenId",
              "type": "uint256"
            },
            {
              "internalType": "address",
              "name": "nftContract",
              "type": "address"
            },
            {
              "internalType": "address payable",
              "name": "seller",
              "type": "address"
            },
            {
              "internalType": "address payable",
              "name": "owner",
              "type": "address"
            },
            {
              "internalType": "uint256",
              "name": "price",
              "type": "uint256"
            },
            {
              "internalType": "bool",
              "name": "sold",
              "type": "bool"
            },
            {
              "internalType": "bool",
              "name": "bidded",
              "type": "bool"
            },
            {
              "internalType": "bool",
              "name": "isMultiToken",
              "type": "bool"
            },
            {
              "components": [
                {
                  "internalType": "uint256",
                  "name": "startAt",
                  "type": "uint256"
                },
                {
                  "internalType": "uint256",
                  "name": "endAt",
                  "type": "uint256"
                },
                {
                  "internalType": "address",
                  "name": "highestBidder",
                  "type": "address"
                },
                {
                  "internalType": "uint256",
                  "name": "highestBid",
                  "type": "uint256"
                },
                {
                  "internalType": "uint256",
                  "name": "highestBidTime",
                  "type": "uint256"
                },
                {
                  "internalType": "uint256",
                  "name": "startingPrice",
                  "type": "uint256"
                },
                {
                  "components": [
                    {
                      "internalType": "address",
                      "name": "bidder",
                      "type": "address"
                    },
                    {
                      "internalType": "uint256",
                      "name": "bid",
                      "type": "uint256"
                    },
                    {
                      "internalType": "uint256",
                      "name": "bidTime",
                      "type": "uint256"
                    }
                  ],
                  "internalType": "struct NFTMarketplace.Bid[]",
                  "name": "bids",
                  "type": "tuple[]"
                }
              ],
              "internalType": "struct NFTMarketplace.AuctionInfo",
              "name": "auctionInfo",
              "type": "tuple"
            }
          ],
          "internalType": "struct NFTMarketplace.MarketItem",
          "name": "",
          "type": "tuple"
        }
      ],
      "stateMutability": "view",
      "type": "function"
    },
    {
      "inputs": [],
      "name": "fetchMyNFTs",
      "outputs": [
        {
          "components": [
            {
              "internalType": "uint256",
              "name": "tokenId",
              "type": "uint256"
            },
            {
              "internalType": "address",
              "name": "nftContract",
              "type": "address"
            },
            {
              "internalType": "address payable",
              "name": "seller",
              "type": "address"
            },
            {
              "internalType": "address payable",
              "name": "owner",
              "type": "address"
            },
            {
              "internalType": "uint256",
              "name": "price",
              "type": "uint256"
            },
            {
              "internalType": "bool",
              "name": "sold",
              "type": "bool"
            },
            {
              "internalType": "bool",
              "name": "bidded",
              "type": "bool"
            },
            {
              "internalType": "bool",
              "name": "isMultiToken",
              "type": "bool"
            },
            {
              "components": [
                {
                  "internalType": "uint256",
                  "name": "startAt",
                  "type": "uint256"
                },
                {
                  "internalType": "uint256",
                  "name": "endAt",
                  "type": "uint256"
                },
                {
                  "internalType": "address",
                  "name": "highestBidder",
                  "type": "address"
                },
                {
                  "internalType": "uint256",
                  "name": "highestBid",
                  "type": "uint256"
                },
                {
                  "internalType": "uint256",
                  "name": "highestBidTime",
                  "type": "uint256"
                },
                {
                  "internalType": "uint256",
                  "name": "startingPrice",
                  "type": "uint256"
                },
                {
                  "components": [
                    {
                      "internalType": "address",
                      "name": "bidder",
                      "type": "address"
                    },
                    {
                      "internalType": "uint256",
                      "name": "bid",
                      "type": "uint256"
                    },
                    {
                      "internalType": "uint256",
                      "name": "bidTime",
                      "type": "uint256"
                    }
                  ],
                  "internalType": "struct NFTMarketplace.Bid[]",
                  "name": "bids",
                  "type": "tuple[]"
                }
              ],
              "internalType": "struct NFTMarketplace.AuctionInfo",
              "name": "auctionInfo",
              "type": "tuple"
            }
          ],
          "internalType": "struct NFTMarketplace.MarketItem[]",
          "name": "items",
          "type": "tuple[]"
        }
      ],
      "stateMutability": "view",
      "type": "function"
    },
    {
      "inputs": [
        {
          "internalType": "uint256",
          "name": "_tokenId",
          "type": "uint256"
        },
        {
          "internalType": "address",
          "name": "_collection",
          "type": "address"
        }
      ],
      "name": "get1155TokenURI",
      "outputs": [
        {
          "internalType": "string",
          "name": "",
          "type": "string"
        }
      ],
      "stateMutability": "view",
      "type": "function"
    },
    {
      "inputs": [
        {
          "internalType": "uint256",
          "name": "_tokenId",
          "type": "uint256"
        },
        {
          "internalType": "address",
          "name": "_collection",
          "type": "address"
        }
      ],
      "name": "get721TokenURI",
      "outputs": [
        {
          "internalType": "string",
          "name": "",
          "type": "string"
        }
      ],
      "stateMutability": "view",
      "type": "function"
    },
    {
      "inputs": [],
      "name": "getListingPrice",
      "outputs": [
        {
          "internalType": "uint256",
          "name": "",
          "type": "uint256"
        }
      ],
      "stateMutability": "view",
      "type": "function"
    },
    {
      "inputs": [
        {
          "internalType": "uint256",
          "name": "tokenId",
          "type": "uint256"
        },
        {
          "internalType": "uint256",
          "name": "startTime",
          "type": "uint256"
        },
        {
          "internalType": "uint256",
          "name": "endTime",
          "type": "uint256"
        },
        {
          "internalType": "uint256",
          "name": "startingPrice",
          "type": "uint256"
        }
      ],
      "name": "listAuctionItem",
      "outputs": [],
      "stateMutability": "payable",
      "type": "function"
    },
    {
      "inputs": [
        {
          "internalType": "uint256",
          "name": "tokenId",
          "type": "uint256"
        },
        {
          "internalType": "uint256",
          "name": "price",
          "type": "uint256"
        }
      ],
      "name": "listMarketItem",
      "outputs": [],
      "stateMutability": "payable",
      "type": "function"
    },
    {
      "inputs": [
        {
          "internalType": "address",
          "name": "",
          "type": "address"
        },
        {
          "internalType": "address",
          "name": "",
          "type": "address"
        },
        {
          "internalType": "uint256[]",
          "name": "",
          "type": "uint256[]"
        },
        {
          "internalType": "uint256[]",
          "name": "",
          "type": "uint256[]"
        },
        {
          "internalType": "bytes",
          "name": "",
          "type": "bytes"
        }
      ],
      "name": "onERC1155BatchReceived",
      "outputs": [
        {
          "internalType": "bytes4",
          "name": "",
          "type": "bytes4"
        }
      ],
      "stateMutability": "nonpayable",
      "type": "function"
    },
    {
      "inputs": [
        {
          "internalType": "address",
          "name": "",
          "type": "address"
        },
        {
          "internalType": "address",
          "name": "",
          "type": "address"
        },
        {
          "internalType": "uint256",
          "name": "",
          "type": "uint256"
        },
        {
          "internalType": "uint256",
          "name": "",
          "type": "uint256"
        },
        {
          "internalType": "bytes",
          "name": "",
          "type": "bytes"
        }
      ],
      "name": "onERC1155Received",
      "outputs": [
        {
          "internalType": "bytes4",
          "name": "",
          "type": "bytes4"
        }
      ],
      "stateMutability": "nonpayable",
      "type": "function"
    },
    {
      "inputs": [
        {
          "internalType": "address",
          "name": "",
          "type": "address"
        },
        {
          "internalType": "address",
          "name": "",
          "type": "address"
        },
        {
          "internalType": "uint256",
          "name": "",
          "type": "uint256"
        },
        {
          "internalType": "bytes",
          "name": "",
          "type": "bytes"
        }
      ],
      "name": "onERC721Received",
      "outputs": [
        {
          "internalType": "bytes4",
          "name": "",
          "type": "bytes4"
        }
      ],
      "stateMutability": "nonpayable",
      "type": "function"
    },
    {
      "inputs": [
        {
          "internalType": "bytes4",
          "name": "interfaceId",
          "type": "bytes4"
        }
      ],
      "name": "supportsInterface",
      "outputs": [
        {
          "internalType": "bool",
          "name": "",
          "type": "bool"
        }
      ],
      "stateMutability": "view",
      "type": "function"
    },
    {
      "inputs": [
        {
          "internalType": "uint256",
          "name": "_listingPrice",
          "type": "uint256"
        }
      ],
      "name": "updateListingPrice",
      "outputs": [],
      "stateMutability": "payable",
      "type": "function"
    },
    {
      "inputs": [
        {
          "internalType": "uint256",
          "name": "tokenId",
          "type": "uint256"
        }
      ],
      "name": "withdrawBid",
      "outputs": [],
      "stateMutability": "payable",
      "type": "function"
    }
  ],
  "bytecode": "0x60806040526107086004556658d15e1762800060055534801561002157600080fd5b506001600055600280546001600160a01b03191633179055613d4e806100486000396000f3fe6080604052600436106101355760003560e01c806345f8fa80116100ab578063b5d6a9f11161006f578063b5d6a9f11461032f578063b9a2de3a1461034f578063bc197c8114610362578063be9af5361461038e578063ca034f3a146103a1578063f23a6e61146103b457600080fd5b806345f8fa80146102b2578063541498c6146102c7578063663d7e29146102dc5780636eb22e1114610309578063ae677aa31461031c57600080fd5b80631adc2576116100fd5780631adc257614610208578063202e3740146102375780632796390c1461024c5780632a45b2501461025f578063359e1a2c1461028c578063454a2ab31461029f57600080fd5b806301ffc9a71461013a5780630e01c9691461016f5780630eaaf4c81461019157806312e85585146101a6578063150b7a02146101c4575b600080fd5b34801561014657600080fd5b5061015a61015536600461381f565b6103e0565b60405190151581526020015b60405180910390f35b34801561017b57600080fd5b50610184610417565b6040516101669190613b86565b6101a461019f3660046138b9565b61080d565b005b3480156101b257600080fd5b50600554604051908152602001610166565b3480156101d057600080fd5b506101ef6101df3660046136e2565b630a85bd0160e11b949350505050565b6040516001600160e01b03199091168152602001610166565b34801561021457600080fd5b506102286102233660046138fc565b610a52565b60405161016693929190613b99565b34801561024357600080fd5b50610184610d25565b6101a461025a3660046138fc565b611004565b34801561026b57600080fd5b5061027f61027a3660046138b9565b611218565b6040516101669190613c08565b6101a461029a36600461391d565b611392565b6101a46102ad3660046138b9565b611714565b3480156102be57600080fd5b506101846119f0565b3480156102d357600080fd5b50610184611ccf565b3480156102e857600080fd5b506102fc6102f73660046138d1565b612522565b6040516101669190613bbe565b6101a46103173660046138b9565b6125a9565b6101a461032a3660046138b9565b6129f7565b34801561033b57600080fd5b506102fc61034a3660046138d1565b612a6f565b6101a461035d3660046138b9565b612a9f565b34801561036e57600080fd5b506101ef61037d36600461363d565b63bc197c8160e01b95945050505050565b6101a461039c3660046138b9565b612f12565b6101a46103af3660046137a9565b61317b565b3480156103c057600080fd5b506101ef6103cf366004613747565b63f23a6e6160e01b95945050505050565b60006001600160e01b03198216630271189760e51b148061041157506301ffc9a760e01b6001600160e01b03198316145b92915050565b6060600061042460015490565b905060008060005b8381101561050e5760036000610443836001613c72565b815260208101919091526040016000206005015460ff1615806104e9575060036000610470836001613c72565b8152602081019190915260400160002060050154610100900460ff161580156104bb575042600360006104a4846001613c72565b815260200190815260200160002060060160010154115b80156104e9575042600360006104d2846001613c72565b815260200190815260200160002060060160000154105b156104fc576104f9600184613c72565b92505b8061050681613cd1565b91505061042c565b506000826001600160401b0381111561053757634e487b7160e01b600052604160045260246000fd5b60405190808252806020026020018201604052801561057057816020015b61055d61343a565b8152602001906001900390816105555790505b50905060005b84811015610804576003600061058d836001613c72565b815260208101919091526040016000206005015460ff1615806106335750600360006105ba836001613c72565b8152602081019190915260400160002060050154610100900460ff16158015610605575042600360006105ee846001613c72565b815260200190815260200160002060060160010154115b80156106335750426003600061061c846001613c72565b815260200190815260200160002060060160000154105b156107f2576000610645826001613c72565b60008181526003602081815260408084208151610120810183528154815260018201546001600160a01b039081168286015260028301548116828501529482015485166060808301919091526004830154608080840191909152600584015460ff808216151560a0808701919091526101008084048316151560c08089019190915262010000909404909216151560e0808801919091528851908101895260068801805482526007890154828c01526008890154909b16818a0152600988015495810195909552600a87015493850193909352600b86015492840192909252600c850180548751818a0281018a019098528088529a9b50949993988a98928a01979396929591870194929391929184015b828210156107ab576000848152602090819020604080516060810182526003860290920180546001600160a01b0316835260018082015484860152600290910154918301919091529083529092019101610756565b5050505081525050815250508486815181106107d757634e487b7160e01b600052603260045260246000fd5b60209081029190910101526107ed600186613c72565b945050505b806107fc81613cd1565b915050610576565b50949350505050565b600260005414156108395760405162461bcd60e51b815260040161083090613bd1565b60405180910390fd5b60026000908155805b6000838152600360205260409020600c015481101561095b576000838152600360205260409020600c0180543391908390811061088f57634e487b7160e01b600052603260045260246000fd5b60009182526020909120600390910201546001600160a01b03161415610949576000838152600360205260409020600c018054829081106108e057634e487b7160e01b600052603260045260246000fd5b906000526020600020906003020160010154826108fd9190613c72565b6000848152600360205260408120600c01805492945090918390811061093357634e487b7160e01b600052603260045260246000fd5b9060005260206000209060030201600101819055505b8061095381613cd1565b915050610842565b50600081116109ac5760405162461bcd60e51b815260206004820152601760248201527f596f7520686176656e27742062696464656420796574210000000000000000006044820152606401610830565b604051339082156108fc029083906000818181858888f193505050501580156109d9573d6000803e3d6000fd5b50600082815260036020908152604091829020600181015460029091015483516001600160a01b0391821681523393810193909352928201849052919091169083907f79d5728b594c308d9a5643e34a4c8aad57bd810a0fa84016d5949d7107bf189c906060015b60405180910390a350506001600055565b60606000806000610a6260015490565b9050808610610aac576040805160008082526020820190925281610a9c565b610a8961343a565b815260200190600190039081610a815790505b509450869350909150610d1e9050565b84610ab78783613c8a565b811115610acb57610ac88783613c8a565b90505b6000816001600160401b03811115610af357634e487b7160e01b600052604160045260246000fd5b604051908082528060200260200182016040528015610b2c57816020015b610b1961343a565b815260200190600190039081610b115790505b509050875b610b3b8984613c72565b811015610d07576000600381610b52846001613c72565b8152602080820192909252604090810160009081208251610120810184528154815260018201546001600160a01b03908116828701526002830154811682860152600383015481166060808401919091526004840154608080850191909152600585015460ff808216151560a0808801919091526101008084048316151560c0808a019190915262010000909404909216151560e0808901919091528a519081018b52600689018054825260078a0154828e015260088a0154909716818c0152600989015495810195909552600a88015493850193909352600b87015492840192909252600c860180548951818c0281018c01909a52808a52969a5094988a98928a0197939694959187019492939192919084015b82821015610cbc576000848152602090819020604080516060810182526003860290920180546001600160a01b0316835260018082015484860152600290910154918301919091529083529092019101610c67565b505050508152505081525050838381518110610ce857634e487b7160e01b600052603260045260246000fd5b6020026020010181905250508080610cff90613cd1565b915050610b31565b5080610d13838a613c72565b849550955095505050505b9250925092565b60606000610d3260015490565b905060008060005b83811015610d95573360036000610d52846001613c72565b81526020810191909152604001600020600301546001600160a01b03161415610d8357610d80600184613c72565b92505b80610d8d81613cd1565b915050610d3a565b506000826001600160401b03811115610dbe57634e487b7160e01b600052604160045260246000fd5b604051908082528060200260200182016040528015610df757816020015b610de461343a565b815260200190600190039081610ddc5790505b50905060005b84811015610804573360036000610e15846001613c72565b81526020810191909152604001600020600301546001600160a01b03161415610ff2576000610e45826001613c72565b60008181526003602081815260408084208151610120810183528154815260018201546001600160a01b039081168286015260028301548116828501529482015485166060808301919091526004830154608080840191909152600584015460ff808216151560a0808701919091526101008084048316151560c08089019190915262010000909404909216151560e0808801919091528851908101895260068801805482526007890154828c01526008890154909b16818a0152600988015495810195909552600a87015493850193909352600b86015492840192909252600c850180548751818a0281018a019098528088529a9b50949993988a98928a01979396929591870194929391929184015b82821015610fab576000848152602090819020604080516060810182526003860290920180546001600160a01b0316835260018082015484860152600290910154918301919091529083529092019101610f56565b505050508152505081525050848681518110610fd757634e487b7160e01b600052603260045260246000fd5b6020908102919091010152610fed600186613c72565b945050505b80610ffc81613cd1565b915050610dfd565b60055434101561106f5760405162461bcd60e51b815260206004820152603060248201527f5072696365206d75737420626520657175616c206f722068696768657220746860448201526f616e206c697374696e6720707269636560801b6064820152608401610830565b600081116110bf5760405162461bcd60e51b815260206004820152601c60248201527f5072696365206d757374206265206174206c65617374203120776569000000006044820152606401610830565b600082815260036020819052604090912001546001600160a01b031633146111295760405162461bcd60e51b815260206004820152601960248201527f4f6e6c79206f776e65722063616e206c697374206974656d21000000000000006044820152606401610830565b60008281526003602081905260409091206004810183905560058101805460ff191690819055600282018054336001600160a01b03199182168117909255938301805430951685179055600190920154611199939186916001600160a01b03169060ff6201000090910416613262565b60008281526003602081815260409283902060018101549281015460059091015484516001600160a01b0392831681526201000090910460ff1615159281019290925292810184905291169083907f31b463dc211ba8d71de85d00fe324011853b81e134abc9b82ea212c3fa1f9a459060600160405180910390a35050565b61122061343a565b60008281526003602081815260408084208151610120810183528154815260018201546001600160a01b039081168286015260028301548116828501529482015485166060808301919091526004830154608080840191909152600584015460ff808216151560a0808701919091526101008084048316151560c08089019190915262010000909404909216151560e0808801919091528851908101895260068801805482526007890154828c01526008890154909b16818a0152600988015495810195909552600a87015493850193909352600b86015492840192909252600c850180548751818a0281018a0190985280885294999598928a0197939692959187019492939092919084015b82821015611382576000848152602090819020604080516060810182526003860290920180546001600160a01b031683526001808201548486015260029091015491830191909152908352909201910161132d565b5050509152505090525092915050565b60055434146113ef5760405162461bcd60e51b8152602060048201526024808201527f5072696365206d75737420626520657175616c20746f206c697374696e6720706044820152637269636560e01b6064820152608401610830565b6000811161144b5760405162461bcd60e51b8152602060048201526024808201527f5374617274696e67207072696365206d757374206265206c61726765722074686044820152630616e20360e41b6064820152608401610830565b600084815260036020819052604090912001546001600160a01b031633146114ae5760405162461bcd60e51b815260206004820152601660248201527527b7363c9037bbb732b91031b0b71030bab1ba34b7b760511b6044820152606401610830565b60008481526003602052604090206005015460ff1680156114e55750600084815260036020526040902060050154610100900460ff165b6115225760405162461bcd60e51b815260206004820152600e60248201526d4e4654206973206f6e2073616c6560901b6044820152606401610830565b81421061155a5760405162461bcd60e51b8152602060048201526006602482015265456e6465642160d01b6044820152606401610830565b6004546115678484613c8a565b116115cd5760405162461bcd60e51b815260206004820152603060248201527f5468652061756374696f6e2074696d65206d757374206265206c6f6e6765722060448201526f7468616e203330206d696e757465732160801b6064820152608401610830565b60008481526003602052604081206006810185905560078101849055600981018290556008810180546001600160a01b0319169055600a8101829055600b810183905561161f91600c909101906134ed565b600084815260036020819052604090912060058101805461ff00191690819055600282018054336001600160a01b03199182168117909255938301805430951685179055600190920154611689939188916001600160a01b03169060ff6201000090910416613262565b600084815260036020908152604091829020600181015460059091015483513381526201000090910460ff1615159281019290925291810183905260608101859052608081018490526001600160a01b039091169085907f75b0cfc9c9950e18b8591f8b42e62d98434f7a4f41d479a90133cb251e1b96f19060a0015b60405180910390a350505050565b6000818152600360205260409020600201546001600160a01b031633141561177e5760405162461bcd60e51b815260206004820152601760248201527f596f752063616e27742062696420796f7572206974656d0000000000000000006044820152606401610830565b600081815260036020526040902060050154610100900460ff16156117da5760405162461bcd60e51b81526020600482015260126024820152714974656d2069736e27742062696464696e6760701b6044820152606401610830565b6000818152600360205260409020600601544211801561180a575060008181526003602052604090206007015442105b61184b5760405162461bcd60e51b81526020600482015260126024820152714e6f7420696e2062696420706572696f642160701b6044820152606401610830565b60008181526003602052604090206009015434116118ab5760405162461bcd60e51b815260206004820181905260248201527f4d757374206269642068696768657220746865206869676865737420626964216044820152606401610830565b6000818152600360205260409020600801546001600160a01b03161561194f576040805160608101825260008381526003602081815284832060088101546001600160a01b0390811686526009820154838701908152600a830154978701978852848452600c9092018054600180820183559187529390952095519290930290940180546001600160a01b0319169190921617815591519082015590516002909101555b60008181526003602090815260409182902034600982018190556008820180546001600160a01b0319163390811790915542600a8401819055600184015460029094015486516001600160a01b03918216815295860192909252948401919091526060830193909352919091169082907f34f367c117714cf7e9fff4df15a4799e49ad2785e267d0ce4aae7a045d471f30906080015b60405180910390a350565b606060006119fd60015490565b905060008060005b83811015611a60573360036000611a1d846001613c72565b81526020810191909152604001600020600201546001600160a01b03161415611a4e57611a4b600184613c72565b92505b80611a5881613cd1565b915050611a05565b506000826001600160401b03811115611a8957634e487b7160e01b600052604160045260246000fd5b604051908082528060200260200182016040528015611ac257816020015b611aaf61343a565b815260200190600190039081611aa75790505b50905060005b84811015610804573360036000611ae0846001613c72565b81526020810191909152604001600020600201546001600160a01b03161415611cbd576000611b10826001613c72565b60008181526003602081815260408084208151610120810183528154815260018201546001600160a01b039081168286015260028301548116828501529482015485166060808301919091526004830154608080840191909152600584015460ff808216151560a0808701919091526101008084048316151560c08089019190915262010000909404909216151560e0808801919091528851908101895260068801805482526007890154828c01526008890154909b16818a0152600988015495810195909552600a87015493850193909352600b86015492840192909252600c850180548751818a0281018a019098528088529a9b50949993988a98928a01979396929591870194929391929184015b82821015611c76576000848152602090819020604080516060810182526003860290920180546001600160a01b0316835260018082015484860152600290910154918301919091529083529092019101611c21565b505050508152505081525050848681518110611ca257634e487b7160e01b600052603260045260246000fd5b6020908102919091010152611cb8600186613c72565b945050505b80611cc781613cd1565b915050611ac8565b60606000611cdc60015490565b905060008060005b83811015611f235760036000611cfb836001613c72565b815260208101919091526040016000206005015460ff1615156001148015611d4b575060036000611d2d836001613c72565b8152602081019190915260400160002060050154610100900460ff16155b8015611d7957504260036000611d62846001613c72565b815260200190815260200160002060060160000154105b8015611db057506000600381611d90846001613c72565b81526020810191909152604001600020600801546001600160a01b031614155b15611f11573360036000611dc5846001613c72565b81526020810191909152604001600020600801546001600160a01b03161415611dfa57611df3600184613c72565b9250611f11565b6000600381611e0a846001613c72565b8152602001908152602001600020600601600601805480602002602001604051908101604052809291908181526020016000905b82821015611e93576000848152602090819020604080516060810182526003860290920180546001600160a01b0316835260018082015484860152600290910154918301919091529083529092019101611e3e565b50505050905060005b8151811015611f0e57336001600160a01b0316828281518110611ecf57634e487b7160e01b600052603260045260246000fd5b6020026020010151600001516001600160a01b03161415611efc57611ef5600186613c72565b9450611f0e565b80611f0681613cd1565b915050611e9c565b50505b80611f1b81613cd1565b915050611ce4565b506000826001600160401b03811115611f4c57634e487b7160e01b600052604160045260246000fd5b604051908082528060200260200182016040528015611f8557816020015b611f7261343a565b815260200190600190039081611f6a5790505b50905060005b848110156108045760036000611fa2836001613c72565b815260208101919091526040016000206005015460ff1615156001148015611ff2575060036000611fd4836001613c72565b8152602081019190915260400160002060050154610100900460ff16155b801561202057504260036000612009846001613c72565b815260200190815260200160002060060160000154105b801561205757506000600381612037846001613c72565b81526020810191909152604001600020600801546001600160a01b031614155b1561251057336003600061206c846001613c72565b81526020810191909152604001600020600801546001600160a01b0316141561224d57600061209c826001613c72565b60008181526003602081815260408084208151610120810183528154815260018201546001600160a01b039081168286015260028301548116828501529482015485166060808301919091526004830154608080840191909152600584015460ff808216151560a0808701919091526101008084048316151560c08089019190915262010000909404909216151560e0808801919091528851908101895260068801805482526007890154828c01526008890154909b16818a0152600988015495810195909552600a87015493850193909352600b86015492840192909252600c850180548751818a0281018a019098528088529a9b50949993988a98928a01979396929591870194929391929184015b82821015612202576000848152602090819020604080516060810182526003860290920180546001600160a01b03168352600180820154848601526002909101549183019190915290835290920191016121ad565b50505050815250508152505084868151811061222e57634e487b7160e01b600052603260045260246000fd5b6020908102919091010152612244600186613c72565b94505050612510565b600060038161225d846001613c72565b8152602001908152602001600020600601600601805480602002602001604051908101604052809291908181526020016000905b828210156122e6576000848152602090819020604080516060810182526003860290920180546001600160a01b0316835260018082015484860152600290910154918301919091529083529092019101612291565b50505050905060005b815181101561250d57336001600160a01b031682828151811061232257634e487b7160e01b600052603260045260246000fd5b6020026020010151600001516001600160a01b031614156124fb57600061234a846001613c72565b60008181526003602081815260408084208151610120810183528154815260018201546001600160a01b039081168286015260028301548116828501529482015485166060808301919091526004830154608080840191909152600584015460ff808216151560a0808701919091526101008084048316151560c08089019190915262010000909404909216151560e0808801919091528851908101895260068801805482526007890154828c01526008890154909b16818a0152600988015495810195909552600a87015493850193909352600b86015492840192909252600c850180548751818a0281018a019098528088529a9b50949993988a98928a01979396929591870194929391929184015b828210156124b0576000848152602090819020604080516060810182526003860290920180546001600160a01b031683526001808201548486015260029091015491830191909152908352909201910161245b565b5050505081525050815250508688815181106124dc57634e487b7160e01b600052603260045260246000fd5b60209081029190910101526124f2600188613c72565b9650505061250d565b8061250581613cd1565b9150506122ef565b50505b8061251a81613cd1565b915050611f8b565b604051638ad9134560e01b8152600481018390526060906001600160a01b03831690638ad91345906024015b60006040518083038186803b15801561256657600080fd5b505afa15801561257a573d6000803e3d6000fd5b505050506040513d6000823e601f3d908101601f191682016040526125a29190810190613847565b9392505050565b6000818152600360205260409020600201546001600160a01b031633146126125760405162461bcd60e51b815260206004820152601f60248201527f4f6e6c792073656c6c65722063616e2063616e63656c206c697374696e6721006044820152606401610830565b60008181526003602052604090206005015460ff16158061264a5750600081815260036020526040902060050154610100900460ff16155b6126a25760405162461bcd60e51b8152602060048201526024808201527f4f6e6c79206c6973746564206974656d2063616e2063616e63656c206c697374604482015263696e672160e01b6064820152608401610830565b600081815260036020526040902060050154610100900460ff166128fd5760008181526003602052604090206007015442106127325760405162461bcd60e51b815260206004820152602960248201527f43616e6e6f742063616e63656c207768656e2061756374696f6e20616c726561604482015268647920656e6465642160b81b6064820152608401610830565b6000818152600360205260409020600801546001600160a01b0316156128da5760005b6000828152600360205260409020600c0154811015612889576000828152600360205260408120600c0180548390811061279f57634e487b7160e01b600052603260045260246000fd5b9060005260206000209060030201600101541115612877576000828152600360205260409020600c018054829081106127e857634e487b7160e01b600052603260045260246000fd5b60009182526020808320600392830201548584529190526040909120600c0180546001600160a01b03909216916108fc91908490811061283857634e487b7160e01b600052603260045260246000fd5b9060005260206000209060030201600101549081150290604051600060405180830381858888f19350505050158015612875573d6000803e3d6000fd5b505b8061288181613cd1565b915050612755565b50600081815260036020526040808220600881015460099091015491516001600160a01b039091169282156108fc02929190818181858888f193505050501580156128d8573d6000803e3d6000fd5b505b6000818152600360205260409020600501805461ff00191661010017905561291a565b6000818152600360205260409020600501805460ff191660011790555b60008181526003602081905260409091209081018054336001600160a01b03199182168117909255600283018054909116905560018201546005909201546129799230929185916001600160a01b03169062010000900460ff16613262565b600081815260036020818152604092839020600181015492810154600582015460049092015485516001600160a01b0392831681526201000090930460ff161515938301939093529381019190915291169082907f769a2f215ef24b6515bca3c5f2993d943ce052a9c9deb2fcc5c81a399a0e931c906060016119e5565b6002546001600160a01b03163314612a6a5760405162461bcd60e51b815260206004820152603060248201527f4f6e6c79206d61726b6574706c616365206f776e65722063616e20757064617460448201526f32903634b9ba34b73390383934b1b29760811b6064820152608401610830565b600555565b604051633bb3a24d60e01b8152600481018390526060906001600160a01b03831690633bb3a24d9060240161254e565b60026000541415612ac25760405162461bcd60e51b815260040161083090613bd1565b60026000908155818152600360205260409020600701544211612b275760405162461bcd60e51b815260206004820152601960248201527f41756374696f6e206973207374696c6c206f6e676f696e6721000000000000006044820152606401610830565b600081815260036020526040902060050154610100900460ff1615612b875760405162461bcd60e51b815260206004820152601660248201527541756374696f6e20616c726561647920656e6465642160501b6044820152606401610830565b6000818152600360205260409020600801546001600160a01b031615612d8e5760005b6000828152600360205260409020600c0154811015612cde576000828152600360205260408120600c01805483908110612bf457634e487b7160e01b600052603260045260246000fd5b9060005260206000209060030201600101541115612ccc576000828152600360205260409020600c01805482908110612c3d57634e487b7160e01b600052603260045260246000fd5b60009182526020808320600392830201548584529190526040909120600c0180546001600160a01b03909216916108fc919084908110612c8d57634e487b7160e01b600052603260045260246000fd5b9060005260206000209060030201600101549081150290604051600060405180830381858888f19350505050158015612cca573d6000803e3d6000fd5b505b80612cd681613cd1565b915050612baa565b50600081815260036020526040808220600281015460099091015491516001600160a01b039091169282156108fc02929190818181858888f19350505050158015612d2d573d6000803e3d6000fd5b506000818152600360208190526040909120600881015491810180546001600160a01b0319166001600160a01b039384169081179091556001820154600590920154612d89933093869291169060ff6201000090910416613262565b612e09565b600081815260036020526040902060028101546001820154600590920154612dd39230926001600160a01b039081169286929091169060ff6201000090910416613262565b60008181526003602081905260409091206002810154910180546001600160a01b0319166001600160a01b039092169190911790555b6000818152600360205260408082206002015460055491516001600160a01b039091169282156108fc02929190818181858888f19350505050158015612e53573d6000803e3d6000fd5b506000818152600360208181526040928390206002810180546001600160a01b031916905560058101805461ff0019166101001790819055600182015493820154600883015460099093015486516001600160a01b0392831681526201000090930460ff16151594830194909452918216948101949094526060840191909152426080840152169082907fa21625bacd9a53a22f3eda0f00281d2db3d918b022e003de1b8ec1dbf3551b319060a00160405180910390a3506001600055565b60026000541415612f355760405162461bcd60e51b815260040161083090613bd1565b60026000818155828152600360205260409020908101546005909101546001600160a01b039091169060ff1615612fa35760405162461bcd60e51b81526020600482015260126024820152714974656d2069736e2774206f6e2073616c6560701b6044820152606401610830565b60008281526003602052604090206004015434146130135760405162461bcd60e51b815260206004820152602760248201527f4275796572206d757374207472616e7366657220657175616c207072696365206044820152666f66206974656d60c81b6064820152608401610830565b6000828152600360205260408082206002015490516001600160a01b03909116913480156108fc02929091818181858888f1935050505015801561305b573d6000803e3d6000fd5b506000828152600360205260408082206002015460055491516001600160a01b039091169282156108fc02929190818181858888f193505050501580156130a6573d6000803e3d6000fd5b5060008281526003602081905260409091209081018054336001600160a01b03199182168117909255600283018054909116905560058201805460ff1916600190811791829055909201546131159230929186916001600160a01b039091169060ff6201000090910416613262565b600082815260036020908152604091829020600181015460049091015483516001600160a01b038681168252339482019490945293840152169083907fd3bd3ff48ce3a8bb23194a87b735e828ab1668173da85bff87a6000c0408512a90606001610a41565b613189600180546001019055565b600061319460015490565b905081156131ae576131a98160018587613369565b6131b9565b6131b98184866133d3565b6000818152600360208181526040928390208481556001810180546001600160a01b038a166001600160a01b03199182168117909255600283018054821690559382018054909416339081179094556005909101805487151562010000810262ffffff1990921691909117610101179091558451938452918301919091529183917fac1bd62278cac1e3927d9af6d75c2a00c32db78ed0bb3a721d009050f786b7e89101611706565b80156132f757604051637921219560e11b81526001600160a01b0386811660048301528581166024830152604482018590526001606483015260a06084830152600260a4830152615b5d60f01b60c483015283169063f242432a9060e401600060405180830381600087803b1580156132da57600080fd5b505af11580156132ee573d6000803e3d6000fd5b50505050613362565b604051632142170760e11b81526001600160a01b0386811660048301528581166024830152604482018590528316906342842e0e90606401600060405180830381600087803b15801561334957600080fd5b505af115801561335d573d6000803e3d6000fd5b505050505b5050505050565b6040516332ad158d60e11b81526001600160a01b0382169063655a2b1a9061339b903390889088908890600401613b59565b600060405180830381600087803b1580156133b557600080fd5b505af11580156133c9573d6000803e3d6000fd5b5050505050505050565b604051630f2bb48960e11b81526001600160a01b03821690631e5769129061340390339087908790600401613b32565b600060405180830381600087803b15801561341d57600080fd5b505af1158015613431573d6000803e3d6000fd5b50505050505050565b6040518061012001604052806000815260200160006001600160a01b0316815260200160006001600160a01b0316815260200160006001600160a01b03168152602001600081526020016000151581526020016000151581526020016000151581526020016134e86040518060e00160405280600081526020016000815260200160006001600160a01b03168152602001600081526020016000815260200160008152602001606081525090565b905290565b508054600082556003029060005260206000209081019061350e9190613511565b50565b5b8082111561353e5780546001600160a01b03191681556000600182018190556002820155600301613512565b5090565b600061355561355084613c4b565b613c1b565b905082815283838301111561356957600080fd5b828260208301376000602084830101529392505050565b80356001600160a01b038116811461359757600080fd5b919050565b600082601f8301126135ac578081fd5b813560206001600160401b038211156135c7576135c7613d02565b8160051b6135d6828201613c1b565b8381528281019086840183880185018910156135f0578687fd5b8693505b858410156136125780358352600193909301929184019184016135f4565b50979650505050505050565b600082601f83011261362e578081fd5b6125a283833560208501613542565b600080600080600060a08688031215613654578081fd5b61365d86613580565b945061366b60208701613580565b935060408601356001600160401b0380821115613686578283fd5b61369289838a0161359c565b945060608801359150808211156136a7578283fd5b6136b389838a0161359c565b935060808801359150808211156136c8578283fd5b506136d58882890161361e565b9150509295509295909350565b600080600080608085870312156136f7578384fd5b61370085613580565b935061370e60208601613580565b92506040850135915060608501356001600160401b0381111561372f578182fd5b61373b8782880161361e565b91505092959194509250565b600080600080600060a0868803121561375e578081fd5b61376786613580565b945061377560208701613580565b9350604086013592506060860135915060808601356001600160401b0381111561379d578182fd5b6136d58882890161361e565b6000806000606084860312156137bd578283fd5b6137c684613580565b925060208401356001600160401b038111156137e0578283fd5b8401601f810186136137f0578283fd5b6137ff86823560208401613542565b92505060408401358015158114613814578182fd5b809150509250925092565b600060208284031215613830578081fd5b81356001600160e01b0319811681146125a2578182fd5b600060208284031215613858578081fd5b81516001600160401b0381111561386d578182fd5b8201601f8101841361387d578182fd5b805161388b61355082613c4b565b81815285602083850101111561389f578384fd5b6138b0826020830160208601613ca1565b95945050505050565b6000602082840312156138ca578081fd5b5035919050565b600080604083850312156138e3578182fd5b823591506138f360208401613580565b90509250929050565b6000806040838503121561390e578182fd5b50508035926020909101359150565b60008060008060808587031215613932578182fd5b5050823594602084013594506040840135936060013592509050565b600081518084526020808501808196508360051b81019150828601855b85811015613995578284038952613983848351613a79565b9885019893509084019060010161396b565b5091979650505050505050565b600081518084526139ba816020860160208601613ca1565b601f01601f19169290920160200192915050565b600060e08301825184526020808401518186015260408085015160018060a01b03808216838901526060915081870151828901526080870151608089015260a087015160a089015260c087015160e060c08a01528581518088526101008b01915086830197508892505b80831015613a6b578751805185168352878101518884015286015186830152968601966001929092019190840190613a38565b509998505050505050505050565b60006101208251845260018060a01b0360208401511660208501526040830151613aae60408601826001600160a01b03169052565b506060830151613ac960608601826001600160a01b03169052565b506080830151608085015260a0830151613ae760a086018215159052565b5060c0830151613afb60c086018215159052565b5060e0830151613b0f60e086018215159052565b50610100808401518282870152613b28838701826139ce565b9695505050505050565b60018060a01b03841681528260208201526060604082015260006138b060608301846139a2565b60018060a01b0385168152836020820152826040820152608060608201526000613b2860808301846139a2565b6020815260006125a2602083018461394e565b606081526000613bac606083018661394e565b60208301949094525060400152919050565b6020815260006125a260208301846139a2565b6020808252601f908201527f5265656e7472616e637947756172643a207265656e7472616e742063616c6c00604082015260600190565b6020815260006125a26020830184613a79565b604051601f8201601f191681016001600160401b0381118282101715613c4357613c43613d02565b604052919050565b60006001600160401b03821115613c6457613c64613d02565b50601f01601f191660200190565b60008219821115613c8557613c85613cec565b500190565b600082821015613c9c57613c9c613cec565b500390565b60005b83811015613cbc578181015183820152602001613ca4565b83811115613ccb576000848401525b50505050565b6000600019821415613ce557613ce5613cec565b5060010190565b634e487b7160e01b600052601160045260246000fd5b634e487b7160e01b600052604160045260246000fdfea2646970667358221220030a4b177867f03d73484695879917afbd1c12efa4419046d9c913a73e9944fb64736f6c63430008040033",
  "linkReferences": {},
  "deployedLinkReferences": {}
}