{
  "_format": "hh-sol-artifact-1",
  "contractName": "UITToken1155",
  "sourceName": "contracts/UITToken1155.sol",
  "abi": [
    {
      "inputs": [
        {
          "internalType": "string",
          "name": "_name",
          "type": "string"
        },
        {
          "internalType": "string",
          "name": "_symbol",
          "type": "string"
        },
        {
          "internalType": "address",
          "name": "_parentAddress",
          "type": "address"
        }
      ],
      "stateMutability": "nonpayable",
      "type": "constructor"
    },
    {
      "anonymous": false,
      "inputs": [
        {
          "indexed": true,
          "internalType": "address",
          "name": "account",
          "type": "address"
        },
        {
          "indexed": true,
          "internalType": "address",
          "name": "operator",
          "type": "address"
        },
        {
          "indexed": false,
          "internalType": "bool",
          "name": "approved",
          "type": "bool"
        }
      ],
      "name": "ApprovalForAll",
      "type": "event"
    },
    {
      "anonymous": false,
      "inputs": [
        {
          "indexed": true,
          "internalType": "address",
          "name": "previousOwner",
          "type": "address"
        },
        {
          "indexed": true,
          "internalType": "address",
          "name": "newOwner",
          "type": "address"
        }
      ],
      "name": "OwnershipTransferred",
      "type": "event"
    },
    {
      "anonymous": false,
      "inputs": [
        {
          "indexed": true,
          "internalType": "address",
          "name": "operator",
          "type": "address"
        },
        {
          "indexed": true,
          "internalType": "address",
          "name": "from",
          "type": "address"
        },
        {
          "indexed": true,
          "internalType": "address",
          "name": "to",
          "type": "address"
        },
        {
          "indexed": false,
          "internalType": "uint256[]",
          "name": "ids",
          "type": "uint256[]"
        },
        {
          "indexed": false,
          "internalType": "uint256[]",
          "name": "values",
          "type": "uint256[]"
        }
      ],
      "name": "TransferBatch",
      "type": "event"
    },
    {
      "anonymous": false,
      "inputs": [
        {
          "indexed": true,
          "internalType": "address",
          "name": "operator",
          "type": "address"
        },
        {
          "indexed": true,
          "internalType": "address",
          "name": "from",
          "type": "address"
        },
        {
          "indexed": true,
          "internalType": "address",
          "name": "to",
          "type": "address"
        },
        {
          "indexed": false,
          "internalType": "uint256",
          "name": "id",
          "type": "uint256"
        },
        {
          "indexed": false,
          "internalType": "uint256",
          "name": "value",
          "type": "uint256"
        }
      ],
      "name": "TransferSingle",
      "type": "event"
    },
    {
      "anonymous": false,
      "inputs": [
        {
          "indexed": false,
          "internalType": "string",
          "name": "value",
          "type": "string"
        },
        {
          "indexed": true,
          "internalType": "uint256",
          "name": "id",
          "type": "uint256"
        }
      ],
      "name": "URI",
      "type": "event"
    },
    {
      "inputs": [
        {
          "internalType": "address",
          "name": "account",
          "type": "address"
        },
        {
          "internalType": "uint256",
          "name": "id",
          "type": "uint256"
        }
      ],
      "name": "balanceOf",
      "outputs": [
        {
          "internalType": "uint256",
          "name": "",
          "type": "uint256"
        }
      ],
      "stateMutability": "view",
      "type": "function"
    },
    {
      "inputs": [
        {
          "internalType": "address[]",
          "name": "accounts",
          "type": "address[]"
        },
        {
          "internalType": "uint256[]",
          "name": "ids",
          "type": "uint256[]"
        }
      ],
      "name": "balanceOfBatch",
      "outputs": [
        {
          "internalType": "uint256[]",
          "name": "",
          "type": "uint256[]"
        }
      ],
      "stateMutability": "view",
      "type": "function"
    },
    {
      "inputs": [],
      "name": "collectionSymbol",
      "outputs": [
        {
          "internalType": "string",
          "name": "",
          "type": "string"
        }
      ],
      "stateMutability": "view",
      "type": "function"
    },
    {
      "inputs": [],
      "name": "getTokenCount",
      "outputs": [
        {
          "internalType": "uint256",
          "name": "",
          "type": "uint256"
        }
      ],
      "stateMutability": "view",
      "type": "function"
    },
    {
      "inputs": [],
      "name": "getTokenIds",
      "outputs": [
        {
          "internalType": "uint256[]",
          "name": "",
          "type": "uint256[]"
        }
      ],
      "stateMutability": "view",
      "type": "function"
    },
    {
      "inputs": [
        {
          "internalType": "uint256",
          "name": "_tokenId",
          "type": "uint256"
        }
      ],
      "name": "getTokenURI",
      "outputs": [
        {
          "internalType": "string",
          "name": "",
          "type": "string"
        }
      ],
      "stateMutability": "view",
      "type": "function"
    },
    {
      "inputs": [
        {
          "internalType": "uint256",
          "name": "_id",
          "type": "uint256"
        }
      ],
      "name": "getTotalSupplyOfToken",
      "outputs": [
        {
          "internalType": "uint256",
          "name": "",
          "type": "uint256"
        }
      ],
      "stateMutability": "view",
      "type": "function"
    },
    {
      "inputs": [
        {
          "internalType": "address",
          "name": "account",
          "type": "address"
        },
        {
          "internalType": "address",
          "name": "operator",
          "type": "address"
        }
      ],
      "name": "isApprovedForAll",
      "outputs": [
        {
          "internalType": "bool",
          "name": "",
          "type": "bool"
        }
      ],
      "stateMutability": "view",
      "type": "function"
    },
    {
      "inputs": [
        {
          "internalType": "address",
          "name": "_owner",
          "type": "address"
        },
        {
          "internalType": "uint256",
          "name": "_id",
          "type": "uint256"
        },
        {
          "internalType": "uint256",
          "name": "amount",
          "type": "uint256"
        },
        {
          "internalType": "string",
          "name": "_tokenUri",
          "type": "string"
        }
      ],
      "name": "mintNFT",
      "outputs": [],
      "stateMutability": "nonpayable",
      "type": "function"
    },
    {
      "inputs": [],
      "name": "name",
      "outputs": [
        {
          "internalType": "string",
          "name": "",
          "type": "string"
        }
      ],
      "stateMutability": "view",
      "type": "function"
    },
    {
      "inputs": [],
      "name": "owner",
      "outputs": [
        {
          "internalType": "address",
          "name": "",
          "type": "address"
        }
      ],
      "stateMutability": "view",
      "type": "function"
    },
    {
      "inputs": [],
      "name": "renounceOwnership",
      "outputs": [],
      "stateMutability": "nonpayable",
      "type": "function"
    },
    {
      "inputs": [
        {
          "internalType": "address",
          "name": "from",
          "type": "address"
        },
        {
          "internalType": "address",
          "name": "to",
          "type": "address"
        },
        {
          "internalType": "uint256[]",
          "name": "ids",
          "type": "uint256[]"
        },
        {
          "internalType": "uint256[]",
          "name": "amounts",
          "type": "uint256[]"
        },
        {
          "internalType": "bytes",
          "name": "data",
          "type": "bytes"
        }
      ],
      "name": "safeBatchTransferFrom",
      "outputs": [],
      "stateMutability": "nonpayable",
      "type": "function"
    },
    {
      "inputs": [
        {
          "internalType": "address",
          "name": "from",
          "type": "address"
        },
        {
          "internalType": "address",
          "name": "to",
          "type": "address"
        },
        {
          "internalType": "uint256",
          "name": "id",
          "type": "uint256"
        },
        {
          "internalType": "uint256",
          "name": "amount",
          "type": "uint256"
        },
        {
          "internalType": "bytes",
          "name": "data",
          "type": "bytes"
        }
      ],
      "name": "safeTransferFrom",
      "outputs": [],
      "stateMutability": "nonpayable",
      "type": "function"
    },
    {
      "inputs": [
        {
          "internalType": "address",
          "name": "operator",
          "type": "address"
        },
        {
          "internalType": "bool",
          "name": "approved",
          "type": "bool"
        }
      ],
      "name": "setApprovalForAll",
      "outputs": [],
      "stateMutability": "nonpayable",
      "type": "function"
    },
    {
      "inputs": [
        {
          "internalType": "string",
          "name": "_name",
          "type": "string"
        }
      ],
      "name": "setName",
      "outputs": [],
      "stateMutability": "nonpayable",
      "type": "function"
    },
    {
      "inputs": [],
      "name": "setParentApproval",
      "outputs": [],
      "stateMutability": "nonpayable",
      "type": "function"
    },
    {
      "inputs": [
        {
          "internalType": "string",
          "name": "_symbol",
          "type": "string"
        }
      ],
      "name": "setSymbol",
      "outputs": [],
      "stateMutability": "nonpayable",
      "type": "function"
    },
    {
      "inputs": [
        {
          "internalType": "string",
          "name": "newuri",
          "type": "string"
        }
      ],
      "name": "setURI",
      "outputs": [],
      "stateMutability": "nonpayable",
      "type": "function"
    },
    {
      "inputs": [
        {
          "internalType": "bytes4",
          "name": "interfaceId",
          "type": "bytes4"
        }
      ],
      "name": "supportsInterface",
      "outputs": [
        {
          "internalType": "bool",
          "name": "",
          "type": "bool"
        }
      ],
      "stateMutability": "view",
      "type": "function"
    },
    {
      "inputs": [],
      "name": "symbol",
      "outputs": [
        {
          "internalType": "string",
          "name": "",
          "type": "string"
        }
      ],
      "stateMutability": "view",
      "type": "function"
    },
    {
      "inputs": [
        {
          "internalType": "address",
          "name": "newOwner",
          "type": "address"
        }
      ],
      "name": "transferOwnership",
      "outputs": [],
      "stateMutability": "nonpayable",
      "type": "function"
    },
    {
      "inputs": [
        {
          "internalType": "uint256",
          "name": "_tokenId",
          "type": "uint256"
        }
      ],
      "name": "uri",
      "outputs": [
        {
          "internalType": "string",
          "name": "",
          "type": "string"
        }
      ],
      "stateMutability": "view",
      "type": "function"
    }
  ],
  "bytecode": "0x60806040523480156200001157600080fd5b5060405162001f8c38038062001f8c833981016040819052620000349162000273565b6040805160208101909152600081526200004e81620000af565b506200005a33620000c8565b82516200006f9060089060208601906200011a565b508151620000859060099060208501906200011a565b50600480546001600160a01b0319166001600160a01b0392909216919091179055506200034f9050565b8051620000c49060029060208401906200011a565b5050565b600380546001600160a01b038381166001600160a01b0319831681179093556040519116919082907f8be0079c531659141344cd1fd0a4f28419497f9722a3daafe3b4186f6b6457e090600090a35050565b8280546200012890620002fc565b90600052602060002090601f0160209004810192826200014c576000855562000197565b82601f106200016757805160ff191683800117855562000197565b8280016001018555821562000197579182015b82811115620001975782518255916020019190600101906200017a565b50620001a5929150620001a9565b5090565b5b80821115620001a55760008155600101620001aa565b600082601f830112620001d1578081fd5b81516001600160401b0380821115620001ee57620001ee62000339565b604051601f8301601f19908116603f0116810190828211818310171562000219576200021962000339565b8160405283815260209250868385880101111562000235578485fd5b8491505b8382101562000258578582018301518183018401529082019062000239565b838211156200026957848385830101525b9695505050505050565b60008060006060848603121562000288578283fd5b83516001600160401b03808211156200029f578485fd5b620002ad87838801620001c0565b94506020860151915080821115620002c3578384fd5b50620002d286828701620001c0565b604086015190935090506001600160a01b0381168114620002f1578182fd5b809150509250925092565b600181811c908216806200031157607f821691505b602082108114156200033357634e487b7160e01b600052602260045260246000fd5b50919050565b634e487b7160e01b600052604160045260246000fd5b611c2d806200035f6000396000f3fe608060405234801561001057600080fd5b506004361061014c5760003560e01c8063715018a6116100c3578063b84c82461161007c578063b84c824614610293578063c47f0027146102a6578063d49e2b59146102b9578063e985e9c5146102c1578063f242432a146102fd578063f2fde38b1461031057600080fd5b8063715018a61461022d57806378a89567146102355780638da5cb5b1461023d57806395d89b411461025857806397492c1c14610260578063a22cb4651461028057600080fd5b80632eb2c2d6116101155780632eb2c2d6146101d75780632f39352a146101ea5780633bb3a24d146101c45780634e1273f4146101f2578063655a2b1a1461021257806367f718a91461022557600080fd5b8062fdd58e1461015157806301ffc9a71461017757806302fe53051461019a57806306fdde03146101af5780630e89341c146101c4575b600080fd5b61016461015f3660046115ee565b610323565b6040519081526020015b60405180910390f35b61018a610185366004611741565b6103ba565b604051901515815260200161016e565b6101ad6101a8366004611779565b61040c565b005b6101b7610442565b60405161016e9190611935565b6101b76101d23660046117b4565b6104d4565b6101ad6101e53660046114ab565b610576565b6101b761060d565b610205610200366004611676565b61069b565b60405161016e91906118f4565b6101ad610220366004611617565b6107fd565b610205610871565b6101ad6108c8565b600554610164565b6003546040516001600160a01b03909116815260200161016e565b6101b76108fe565b61016461026e3660046117b4565b60009081526006602052604090205490565b6101ad61028e3660046115b4565b61090d565b6101ad6102a1366004611779565b61091c565b6101ad6102b4366004611779565b610959565b6101ad610996565b61018a6102cf366004611479565b6001600160a01b03918216600090815260016020908152604080832093909416825291909152205460ff1690565b6101ad61030b366004611551565b6109ad565b6101ad61031e366004611458565b610a34565b60006001600160a01b0383166103945760405162461bcd60e51b815260206004820152602b60248201527f455243313135353a2062616c616e636520717565727920666f7220746865207a60448201526a65726f206164647265737360a81b60648201526084015b60405180910390fd5b506000908152602081815260408083206001600160a01b03949094168352929052205490565b60006001600160e01b03198216636cdb3d1360e11b14806103eb57506001600160e01b031982166303a24d0760e21b145b8061040657506301ffc9a760e01b6001600160e01b03198316145b92915050565b6003546001600160a01b031633146104365760405162461bcd60e51b815260040161038b90611a1f565b61043f81610acc565b50565b60606008805461045190611a90565b80601f016020809104026020016040519081016040528092919081815260200182805461047d90611a90565b80156104ca5780601f1061049f576101008083540402835291602001916104ca565b820191906000526020600020905b8154815290600101906020018083116104ad57829003601f168201915b5050505050905090565b60008181526007602052604090208054606091906104f190611a90565b80601f016020809104026020016040519081016040528092919081815260200182805461051d90611a90565b801561056a5780601f1061053f5761010080835404028352916020019161056a565b820191906000526020600020905b81548152906001019060200180831161054d57829003601f168201915b50505050509050919050565b6001600160a01b038516331480610592575061059285336102cf565b6105f95760405162461bcd60e51b815260206004820152603260248201527f455243313135353a207472616e736665722063616c6c6572206973206e6f74206044820152711bdddb995c881b9bdc88185c1c1c9bdd995960721b606482015260840161038b565b6106068585858585610adf565b5050505050565b6009805461061a90611a90565b80601f016020809104026020016040519081016040528092919081815260200182805461064690611a90565b80156106935780601f1061066857610100808354040283529160200191610693565b820191906000526020600020905b81548152906001019060200180831161067657829003601f168201915b505050505081565b606081518351146107005760405162461bcd60e51b815260206004820152602960248201527f455243313135353a206163636f756e747320616e6420696473206c656e677468604482015268040dad2e6dac2e8c6d60bb1b606482015260840161038b565b6000835167ffffffffffffffff81111561072a57634e487b7160e01b600052604160045260246000fd5b604051908082528060200260200182016040528015610753578160200160208202803683370190505b50905060005b84518110156107f5576107ba85828151811061078557634e487b7160e01b600052603260045260246000fd5b60200260200101518583815181106107ad57634e487b7160e01b600052603260045260246000fd5b6020026020010151610323565b8282815181106107da57634e487b7160e01b600052603260045260246000fd5b60209081029190910101526107ee81611af8565b9050610759565b509392505050565b61081884848460405180602001604052806000815250610cd8565b60058054600181019091557f036b6384b5eca791c62761152d0c79bb0604c104a5fb6f4eb0703f3154bb3db0018390556000838152600660209081526040808320859055600782529091208251610606928401906112c0565b606060058054806020026020016040519081016040528092919081815260200182805480156104ca57602002820191906000526020600020905b8154815260200190600101908083116108ab575050505050905090565b6003546001600160a01b031633146108f25760405162461bcd60e51b815260040161038b90611a1f565b6108fc6000610de2565b565b60606009805461045190611a90565b610918338383610e34565b5050565b6003546001600160a01b031633146109465760405162461bcd60e51b815260040161038b90611a1f565b80516109189060099060208401906112c0565b6003546001600160a01b031633146109835760405162461bcd60e51b815260040161038b90611a1f565b80516109189060089060208401906112c0565b6004546108fc906001600160a01b0316600161090d565b6001600160a01b0385163314806109c957506109c985336102cf565b610a275760405162461bcd60e51b815260206004820152602960248201527f455243313135353a2063616c6c6572206973206e6f74206f776e6572206e6f7260448201526808185c1c1c9bdd995960ba1b606482015260840161038b565b6106068585858585610f15565b6003546001600160a01b03163314610a5e5760405162461bcd60e51b815260040161038b90611a1f565b6001600160a01b038116610ac35760405162461bcd60e51b815260206004820152602660248201527f4f776e61626c653a206e6577206f776e657220697320746865207a65726f206160448201526564647265737360d01b606482015260840161038b565b61043f81610de2565b80516109189060029060208401906112c0565b8151835114610b415760405162461bcd60e51b815260206004820152602860248201527f455243313135353a2069647320616e6420616d6f756e7473206c656e677468206044820152670dad2e6dac2e8c6d60c31b606482015260840161038b565b6001600160a01b038416610b675760405162461bcd60e51b815260040161038b90611990565b3360005b8451811015610c6a576000858281518110610b9657634e487b7160e01b600052603260045260246000fd5b602002602001015190506000858381518110610bc257634e487b7160e01b600052603260045260246000fd5b602090810291909101810151600084815280835260408082206001600160a01b038e168352909352919091205490915081811015610c125760405162461bcd60e51b815260040161038b906119d5565b6000838152602081815260408083206001600160a01b038e8116855292528083208585039055908b16825281208054849290610c4f908490611a78565b9250508190555050505080610c6390611af8565b9050610b6b565b50846001600160a01b0316866001600160a01b0316826001600160a01b03167f4a39dc06d4c0dbc64b70af90fd698a233a518aa5d07e595d983b8c0526c8f7fb8787604051610cba929190611907565b60405180910390a4610cd0818787878787611032565b505050505050565b6001600160a01b038416610d385760405162461bcd60e51b815260206004820152602160248201527f455243313135353a206d696e7420746f20746865207a65726f206164647265736044820152607360f81b606482015260840161038b565b33610d5281600087610d498861119d565b6106068861119d565b6000848152602081815260408083206001600160a01b038916845290915281208054859290610d82908490611a78565b909155505060408051858152602081018590526001600160a01b0380881692600092918516917fc3d58168c5ae7397731d063d5bbf3d657854427343f4c083240f7aacaa2d0f62910160405180910390a4610606816000878787876111f6565b600380546001600160a01b038381166001600160a01b0319831681179093556040519116919082907f8be0079c531659141344cd1fd0a4f28419497f9722a3daafe3b4186f6b6457e090600090a35050565b816001600160a01b0316836001600160a01b03161415610ea85760405162461bcd60e51b815260206004820152602960248201527f455243313135353a2073657474696e6720617070726f76616c20737461747573604482015268103337b91039b2b63360b91b606482015260840161038b565b6001600160a01b03838116600081815260016020908152604080832094871680845294825291829020805460ff191686151590811790915591519182527f17307eab39ab6107e8899845ad3d59bd9653f200f220920489ca2b5937696c31910160405180910390a3505050565b6001600160a01b038416610f3b5760405162461bcd60e51b815260040161038b90611990565b33610f4b818787610d498861119d565b6000848152602081815260408083206001600160a01b038a16845290915290205483811015610f8c5760405162461bcd60e51b815260040161038b906119d5565b6000858152602081815260408083206001600160a01b038b8116855292528083208785039055908816825281208054869290610fc9908490611a78565b909155505060408051868152602081018690526001600160a01b03808916928a821692918616917fc3d58168c5ae7397731d063d5bbf3d657854427343f4c083240f7aacaa2d0f62910160405180910390a46110298288888888886111f6565b50505050505050565b6001600160a01b0384163b15610cd05760405163bc197c8160e01b81526001600160a01b0385169063bc197c81906110769089908990889088908890600401611851565b602060405180830381600087803b15801561109057600080fd5b505af19250505080156110c0575060408051601f3d908101601f191682019092526110bd9181019061175d565b60015b61116d576110cc611b3f565b806308c379a0141561110657506110e1611b57565b806110ec5750611108565b8060405162461bcd60e51b815260040161038b9190611935565b505b60405162461bcd60e51b815260206004820152603460248201527f455243313135353a207472616e7366657220746f206e6f6e20455243313135356044820152732932b1b2b4bb32b91034b6b83632b6b2b73a32b960611b606482015260840161038b565b6001600160e01b0319811663bc197c8160e01b146110295760405162461bcd60e51b815260040161038b90611948565b604080516001808252818301909252606091600091906020808301908036833701905050905082816000815181106111e557634e487b7160e01b600052603260045260246000fd5b602090810291909101015292915050565b6001600160a01b0384163b15610cd05760405163f23a6e6160e01b81526001600160a01b0385169063f23a6e619061123a90899089908890889088906004016118af565b602060405180830381600087803b15801561125457600080fd5b505af1925050508015611284575060408051601f3d908101601f191682019092526112819181019061175d565b60015b611290576110cc611b3f565b6001600160e01b0319811663f23a6e6160e01b146110295760405162461bcd60e51b815260040161038b90611948565b8280546112cc90611a90565b90600052602060002090601f0160209004810192826112ee5760008555611334565b82601f1061130757805160ff1916838001178555611334565b82800160010185558215611334579182015b82811115611334578251825591602001919060010190611319565b50611340929150611344565b5090565b5b808211156113405760008155600101611345565b80356001600160a01b038116811461137057600080fd5b919050565b600082601f830112611385578081fd5b8135602061139282611a54565b60405161139f8282611acb565b8381528281019150858301600585901b870184018810156113be578586fd5b855b858110156113dc578135845292840192908401906001016113c0565b5090979650505050505050565b600082601f8301126113f9578081fd5b813567ffffffffffffffff81111561141357611413611b29565b60405161142a601f8301601f191660200182611acb565b81815284602083860101111561143e578283fd5b816020850160208301379081016020019190915292915050565b600060208284031215611469578081fd5b61147282611359565b9392505050565b6000806040838503121561148b578081fd5b61149483611359565b91506114a260208401611359565b90509250929050565b600080600080600060a086880312156114c2578081fd5b6114cb86611359565b94506114d960208701611359565b9350604086013567ffffffffffffffff808211156114f5578283fd5b61150189838a01611375565b94506060880135915080821115611516578283fd5b61152289838a01611375565b93506080880135915080821115611537578283fd5b50611544888289016113e9565b9150509295509295909350565b600080600080600060a08688031215611568578081fd5b61157186611359565b945061157f60208701611359565b93506040860135925060608601359150608086013567ffffffffffffffff8111156115a8578182fd5b611544888289016113e9565b600080604083850312156115c6578182fd5b6115cf83611359565b9150602083013580151581146115e3578182fd5b809150509250929050565b60008060408385031215611600578182fd5b61160983611359565b946020939093013593505050565b6000806000806080858703121561162c578384fd5b61163585611359565b93506020850135925060408501359150606085013567ffffffffffffffff81111561165e578182fd5b61166a878288016113e9565b91505092959194509250565b60008060408385031215611688578182fd5b823567ffffffffffffffff8082111561169f578384fd5b818501915085601f8301126116b2578384fd5b813560206116bf82611a54565b6040516116cc8282611acb565b8381528281019150858301600585901b870184018b10156116eb578889fd5b8896505b848710156117145761170081611359565b8352600196909601959183019183016116ef565b509650508601359250508082111561172a578283fd5b5061173785828601611375565b9150509250929050565b600060208284031215611752578081fd5b813561147281611be1565b60006020828403121561176e578081fd5b815161147281611be1565b60006020828403121561178a578081fd5b813567ffffffffffffffff8111156117a0578182fd5b6117ac848285016113e9565b949350505050565b6000602082840312156117c5578081fd5b5035919050565b6000815180845260208085019450808401835b838110156117fb578151875295820195908201906001016117df565b509495945050505050565b60008151808452815b8181101561182b5760208185018101518683018201520161180f565b8181111561183c5782602083870101525b50601f01601f19169290920160200192915050565b6001600160a01b0386811682528516602082015260a06040820181905260009061187d908301866117cc565b828103606084015261188f81866117cc565b905082810360808401526118a38185611806565b98975050505050505050565b6001600160a01b03868116825285166020820152604081018490526060810183905260a0608082018190526000906118e990830184611806565b979650505050505050565b60208152600061147260208301846117cc565b60408152600061191a60408301856117cc565b828103602084015261192c81856117cc565b95945050505050565b6020815260006114726020830184611806565b60208082526028908201527f455243313135353a204552433131353552656365697665722072656a656374656040820152676420746f6b656e7360c01b606082015260800190565b60208082526025908201527f455243313135353a207472616e7366657220746f20746865207a65726f206164604082015264647265737360d81b606082015260800190565b6020808252602a908201527f455243313135353a20696e73756666696369656e742062616c616e636520666f60408201526939103a3930b739b332b960b11b606082015260800190565b6020808252818101527f4f776e61626c653a2063616c6c6572206973206e6f7420746865206f776e6572604082015260600190565b600067ffffffffffffffff821115611a6e57611a6e611b29565b5060051b60200190565b60008219821115611a8b57611a8b611b13565b500190565b600181811c90821680611aa457607f821691505b60208210811415611ac557634e487b7160e01b600052602260045260246000fd5b50919050565b601f8201601f1916810167ffffffffffffffff81118282101715611af157611af1611b29565b6040525050565b6000600019821415611b0c57611b0c611b13565b5060010190565b634e487b7160e01b600052601160045260246000fd5b634e487b7160e01b600052604160045260246000fd5b600060033d1115611b5457600481823e5160e01c5b90565b600060443d1015611b655790565b6040516003193d81016004833e81513d67ffffffffffffffff8160248401118184111715611b9557505050505090565b8285019150815181811115611bad5750505050505090565b843d8701016020828501011115611bc75750505050505090565b611bd660208286010187611acb565b509095945050505050565b6001600160e01b03198116811461043f57600080fdfea2646970667358221220a175906240a1238b987aef1d5c8e1786722892b52260679824fd3f1a37dc958164736f6c63430008040033",
  "linkReferences": {},
  "deployedLinkReferences": {}
}